
HI-Res.elf:     file format elf32-avr

Sections:
Idx Name          Size      VMA       LMA       File off  Algn
  0 .text         000013b4  00000000  00000000  00000074  2**1
                  CONTENTS, ALLOC, LOAD, READONLY, CODE
  1 .data         00000000  00800060  00800060  00001428  2**0
                  CONTENTS, ALLOC, LOAD, DATA
  2 .bss          00000123  00800060  00800060  00001428  2**0
                  ALLOC
  3 .comment      00000030  00000000  00000000  00001428  2**0
                  CONTENTS, READONLY
  4 .note.gnu.avr.deviceinfo 0000003c  00000000  00000000  00001458  2**2
                  CONTENTS, READONLY
  5 .debug_info   000004b0  00000000  00000000  00001494  2**0
                  CONTENTS, READONLY, DEBUGGING
  6 .debug_abbrev 00000470  00000000  00000000  00001944  2**0
                  CONTENTS, READONLY, DEBUGGING
  7 .debug_line   00000109  00000000  00000000  00001db4  2**0
                  CONTENTS, READONLY, DEBUGGING
  8 .debug_str    000001a0  00000000  00000000  00001ebd  2**0
                  CONTENTS, READONLY, DEBUGGING

Disassembly of section .text:

00000000 <__vectors>:
       0:	12 c0       	rjmp	.+36     	; 0x26 <__ctors_end>
       2:	21 c0       	rjmp	.+66     	; 0x46 <__bad_interrupt>
       4:	6f c6       	rjmp	.+3294   	; 0xce4 <__vector_2>
       6:	1f c0       	rjmp	.+62     	; 0x46 <__bad_interrupt>
       8:	1e c0       	rjmp	.+60     	; 0x46 <__bad_interrupt>
       a:	1d c0       	rjmp	.+58     	; 0x46 <__bad_interrupt>
       c:	3a c6       	rjmp	.+3188   	; 0xc82 <__vector_6>
       e:	1b c0       	rjmp	.+54     	; 0x46 <__bad_interrupt>
      10:	1a c0       	rjmp	.+52     	; 0x46 <__bad_interrupt>
      12:	19 c0       	rjmp	.+50     	; 0x46 <__bad_interrupt>
      14:	18 c0       	rjmp	.+48     	; 0x46 <__bad_interrupt>
      16:	17 c0       	rjmp	.+46     	; 0x46 <__bad_interrupt>
      18:	f7 c5       	rjmp	.+3054   	; 0xc08 <__vector_12>
      1a:	15 c0       	rjmp	.+42     	; 0x46 <__bad_interrupt>
      1c:	14 c0       	rjmp	.+40     	; 0x46 <__bad_interrupt>
      1e:	13 c0       	rjmp	.+38     	; 0x46 <__bad_interrupt>
      20:	12 c0       	rjmp	.+36     	; 0x46 <__bad_interrupt>
      22:	11 c0       	rjmp	.+34     	; 0x46 <__bad_interrupt>
      24:	10 c0       	rjmp	.+32     	; 0x46 <__bad_interrupt>

00000026 <__ctors_end>:
      26:	11 24       	eor	r1, r1
      28:	1f be       	out	0x3f, r1	; 63
      2a:	cf e5       	ldi	r28, 0x5F	; 95
      2c:	d2 e0       	ldi	r29, 0x02	; 2
      2e:	de bf       	out	0x3e, r29	; 62
      30:	cd bf       	out	0x3d, r28	; 61

00000032 <__do_clear_bss>:
      32:	21 e0       	ldi	r18, 0x01	; 1
      34:	a0 e6       	ldi	r26, 0x60	; 96
      36:	b0 e0       	ldi	r27, 0x00	; 0
      38:	01 c0       	rjmp	.+2      	; 0x3c <.do_clear_bss_start>

0000003a <.do_clear_bss_loop>:
      3a:	1d 92       	st	X+, r1

0000003c <.do_clear_bss_start>:
      3c:	a3 38       	cpi	r26, 0x83	; 131
      3e:	b2 07       	cpc	r27, r18
      40:	e1 f7       	brne	.-8      	; 0x3a <.do_clear_bss_loop>
      42:	d0 d4       	rcall	.+2464   	; 0x9e4 <main>
      44:	b5 c9       	rjmp	.-3222   	; 0xfffff3b0 <__eeprom_end+0xff7ef3b0>

00000046 <__bad_interrupt>:
      46:	dc cf       	rjmp	.-72     	; 0x0 <__vectors>

00000048 <_ZN10intAverage8iAverageEi>:
      48:	dc 01       	movw	r26, r24
      4a:	9c 01       	movw	r18, r24
      4c:	2e 5e       	subi	r18, 0xEE	; 238
      4e:	3f 4f       	sbci	r19, 0xFF	; 255
      50:	fc 01       	movw	r30, r24
      52:	41 91       	ld	r20, Z+
      54:	51 91       	ld	r21, Z+
      56:	51 83       	std	Z+1, r21	; 0x01
      58:	40 83       	st	Z, r20
      5a:	e2 17       	cp	r30, r18
      5c:	f3 07       	cpc	r31, r19
      5e:	c9 f7       	brne	.-14     	; 0x52 <_ZN10intAverage8iAverageEi+0xa>
      60:	fc 01       	movw	r30, r24
      62:	71 83       	std	Z+1, r23	; 0x01
      64:	60 83       	st	Z, r22
      66:	9c 01       	movw	r18, r24
      68:	2c 5e       	subi	r18, 0xEC	; 236
      6a:	3f 4f       	sbci	r19, 0xFF	; 255
      6c:	80 e0       	ldi	r24, 0x00	; 0
      6e:	90 e0       	ldi	r25, 0x00	; 0
      70:	4d 91       	ld	r20, X+
      72:	5d 91       	ld	r21, X+
      74:	84 0f       	add	r24, r20
      76:	95 1f       	adc	r25, r21
      78:	a2 17       	cp	r26, r18
      7a:	b3 07       	cpc	r27, r19
      7c:	c9 f7       	brne	.-14     	; 0x70 <_ZN10intAverage8iAverageEi+0x28>
      7e:	6a e0       	ldi	r22, 0x0A	; 10
      80:	70 e0       	ldi	r23, 0x00	; 0
      82:	6f d9       	rcall	.-3362   	; 0xfffff362 <__eeprom_end+0xff7ef362>
      84:	cb 01       	movw	r24, r22
      86:	08 95       	ret

00000088 <_ZN10dblAverage8dAverageEd>:
      88:	cf 92       	push	r12
      8a:	df 92       	push	r13
      8c:	ef 92       	push	r14
      8e:	ff 92       	push	r15
      90:	0f 93       	push	r16
      92:	1f 93       	push	r17
      94:	cf 93       	push	r28
      96:	df 93       	push	r29
      98:	8c 01       	movw	r16, r24
      9a:	9c 01       	movw	r18, r24
      9c:	2c 5d       	subi	r18, 0xDC	; 220
      9e:	3f 4f       	sbci	r19, 0xFF	; 255
      a0:	fc 01       	movw	r30, r24
      a2:	c1 90       	ld	r12, Z+
      a4:	d1 90       	ld	r13, Z+
      a6:	e1 90       	ld	r14, Z+
      a8:	f1 90       	ld	r15, Z+
      aa:	c0 82       	st	Z, r12
      ac:	d1 82       	std	Z+1, r13	; 0x01
      ae:	e2 82       	std	Z+2, r14	; 0x02
      b0:	f3 82       	std	Z+3, r15	; 0x03
      b2:	e2 17       	cp	r30, r18
      b4:	f3 07       	cpc	r31, r19
      b6:	a9 f7       	brne	.-22     	; 0xa2 <_ZN10dblAverage8dAverageEd+0x1a>
      b8:	fc 01       	movw	r30, r24
      ba:	40 83       	st	Z, r20
      bc:	51 83       	std	Z+1, r21	; 0x01
      be:	62 83       	std	Z+2, r22	; 0x02
      c0:	73 83       	std	Z+3, r23	; 0x03
      c2:	ec 01       	movw	r28, r24
      c4:	a8 96       	adiw	r28, 0x28	; 40
      c6:	60 e0       	ldi	r22, 0x00	; 0
      c8:	70 e0       	ldi	r23, 0x00	; 0
      ca:	cb 01       	movw	r24, r22
      cc:	f8 01       	movw	r30, r16
      ce:	21 91       	ld	r18, Z+
      d0:	31 91       	ld	r19, Z+
      d2:	41 91       	ld	r20, Z+
      d4:	51 91       	ld	r21, Z+
      d6:	8f 01       	movw	r16, r30
      d8:	22 d7       	rcall	.+3652   	; 0xf1e <__addsf3>
      da:	0c 17       	cp	r16, r28
      dc:	1d 07       	cpc	r17, r29
      de:	b1 f7       	brne	.-20     	; 0xcc <_ZN10dblAverage8dAverageEd+0x44>
      e0:	20 e0       	ldi	r18, 0x00	; 0
      e2:	30 e0       	ldi	r19, 0x00	; 0
      e4:	40 e2       	ldi	r20, 0x20	; 32
      e6:	51 e4       	ldi	r21, 0x41	; 65
      e8:	82 d7       	rcall	.+3844   	; 0xfee <__divsf3>
      ea:	df 91       	pop	r29
      ec:	cf 91       	pop	r28
      ee:	1f 91       	pop	r17
      f0:	0f 91       	pop	r16
      f2:	ff 90       	pop	r15
      f4:	ef 90       	pop	r14
      f6:	df 90       	pop	r13
      f8:	cf 90       	pop	r12
      fa:	08 95       	ret

000000fc <_ZN10dblAverage6dResetEv>:
      fc:	9c 01       	movw	r18, r24
      fe:	28 5d       	subi	r18, 0xD8	; 216
     100:	3f 4f       	sbci	r19, 0xFF	; 255
     102:	fc 01       	movw	r30, r24
     104:	11 92       	st	Z+, r1
     106:	11 92       	st	Z+, r1
     108:	11 92       	st	Z+, r1
     10a:	11 92       	st	Z+, r1
     10c:	cf 01       	movw	r24, r30
     10e:	e2 17       	cp	r30, r18
     110:	f3 07       	cpc	r31, r19
     112:	b9 f7       	brne	.-18     	; 0x102 <_ZN10dblAverage6dResetEv+0x6>
     114:	08 95       	ret

00000116 <_ZN12Conductivity12Get_Cond_RawEd>:
     116:	0f 93       	push	r16
     118:	1f 93       	push	r17
     11a:	cf 93       	push	r28
     11c:	df 93       	push	r29
     11e:	cb 01       	movw	r24, r22
     120:	ba 01       	movw	r22, r20
     122:	2d e3       	ldi	r18, 0x3D	; 61
     124:	3c e2       	ldi	r19, 0x2C	; 44
     126:	44 ed       	ldi	r20, 0xD4	; 212
     128:	5c eb       	ldi	r21, 0xBC	; 188
     12a:	b0 d8       	rcall	.-3744   	; 0xfffff28c <__eeprom_end+0xff7ef28c>
     12c:	22 e0       	ldi	r18, 0x02	; 2
     12e:	3b e2       	ldi	r19, 0x2B	; 43
     130:	47 ef       	ldi	r20, 0xF7	; 247
     132:	51 e4       	ldi	r21, 0x41	; 65
     134:	f4 d6       	rcall	.+3560   	; 0xf1e <__addsf3>
     136:	8b 01       	movw	r16, r22
     138:	d8 2f       	mov	r29, r24
     13a:	c9 2f       	mov	r28, r25
     13c:	20 e0       	ldi	r18, 0x00	; 0
     13e:	30 e0       	ldi	r19, 0x00	; 0
     140:	a9 01       	movw	r20, r18
     142:	51 d7       	rcall	.+3746   	; 0xfe6 <__cmpsf2>
     144:	87 ff       	sbrs	r24, 7
     146:	04 c0       	rjmp	.+8      	; 0x150 <_ZN12Conductivity12Get_Cond_RawEd+0x3a>
     148:	00 e0       	ldi	r16, 0x00	; 0
     14a:	10 e0       	ldi	r17, 0x00	; 0
     14c:	d0 e0       	ldi	r29, 0x00	; 0
     14e:	c0 e0       	ldi	r28, 0x00	; 0
     150:	b8 01       	movw	r22, r16
     152:	8d 2f       	mov	r24, r29
     154:	9c 2f       	mov	r25, r28
     156:	df 91       	pop	r29
     158:	cf 91       	pop	r28
     15a:	1f 91       	pop	r17
     15c:	0f 91       	pop	r16
     15e:	08 95       	ret

00000160 <_ZN12Conductivity10Cond_VoltsEd>:
     160:	cb 01       	movw	r24, r22
     162:	ba 01       	movw	r22, r20
     164:	20 e0       	ldi	r18, 0x00	; 0
     166:	30 e0       	ldi	r19, 0x00	; 0
     168:	40 e2       	ldi	r20, 0x20	; 32
     16a:	51 e4       	ldi	r21, 0x41	; 65
     16c:	40 d7       	rcall	.+3712   	; 0xfee <__divsf3>
     16e:	08 95       	ret

00000170 <_ZN12Conductivity16Calc_Cond_OffsetEi>:
     170:	07 2e       	mov	r0, r23
     172:	00 0c       	add	r0, r0
     174:	88 0b       	sbc	r24, r24
     176:	99 0b       	sbc	r25, r25
     178:	d5 d7       	rcall	.+4010   	; 0x1124 <__floatsisf>
     17a:	20 e0       	ldi	r18, 0x00	; 0
     17c:	30 e0       	ldi	r19, 0x00	; 0
     17e:	48 ec       	ldi	r20, 0xC8	; 200
     180:	52 e4       	ldi	r21, 0x42	; 66
     182:	35 d7       	rcall	.+3690   	; 0xfee <__divsf3>
     184:	20 e0       	ldi	r18, 0x00	; 0
     186:	30 e0       	ldi	r19, 0x00	; 0
     188:	40 ea       	ldi	r20, 0xA0	; 160
     18a:	50 e4       	ldi	r21, 0x40	; 64
     18c:	c7 d6       	rcall	.+3470   	; 0xf1c <__subsf3>
     18e:	08 95       	ret

00000190 <_ZN12Conductivity5ResetEv>:
     190:	9c 01       	movw	r18, r24
     192:	2c 5e       	subi	r18, 0xEC	; 236
     194:	3f 4f       	sbci	r19, 0xFF	; 255
     196:	fc 01       	movw	r30, r24
     198:	11 92       	st	Z+, r1
     19a:	11 92       	st	Z+, r1
     19c:	11 92       	st	Z+, r1
     19e:	11 92       	st	Z+, r1
     1a0:	cf 01       	movw	r24, r30
     1a2:	e2 17       	cp	r30, r18
     1a4:	f3 07       	cpc	r31, r19
     1a6:	b9 f7       	brne	.-18     	; 0x196 <_ZN12Conductivity5ResetEv+0x6>
     1a8:	08 95       	ret

000001aa <_ZN9Cond_Main9Cond_InitEv>:
     1aa:	cf 93       	push	r28
     1ac:	df 93       	push	r29
     1ae:	ec 01       	movw	r28, r24
     1b0:	21 d4       	rcall	.+2114   	; 0x9f4 <_ZN10PCBA2017057IO_InitEv>
     1b2:	45 d4       	rcall	.+2186   	; 0xa3e <_ZN10PCBA2017059Freq_InitEv>
     1b4:	c2 d4       	rcall	.+2436   	; 0xb3a <_ZN10PCBA2017058ADC_InitEv>
     1b6:	e7 d4       	rcall	.+2510   	; 0xb86 <_ZN10PCBA2017058PWM_InitEv>
     1b8:	51 d5       	rcall	.+2722   	; 0xc5c <_ZN10PCBA20170510Timer_InitEv>
     1ba:	61 e0       	ldi	r22, 0x01	; 1
     1bc:	83 e0       	ldi	r24, 0x03	; 3
     1be:	90 e0       	ldi	r25, 0x00	; 0
     1c0:	c4 d4       	rcall	.+2440   	; 0xb4a <_ZN10PCBA2017059ADC_StartEib>
     1c2:	1e d5       	rcall	.+2620   	; 0xc00 <_ZN10PCBA20170513WatchDog_InitEv>
     1c4:	ce 01       	movw	r24, r28
     1c6:	f8 d3       	rcall	.+2032   	; 0x9b8 <_ZN6EEProm11EEProm_InitEv>
     1c8:	fe 01       	movw	r30, r28
     1ca:	e6 55       	subi	r30, 0x56	; 86
     1cc:	ff 4f       	sbci	r31, 0xFF	; 255
     1ce:	11 82       	std	Z+1, r1	; 0x01
     1d0:	10 82       	st	Z, r1
     1d2:	32 97       	sbiw	r30, 0x02	; 2
     1d4:	10 82       	st	Z, r1
     1d6:	31 96       	adiw	r30, 0x01	; 1
     1d8:	10 82       	st	Z, r1
     1da:	ce 01       	movw	r24, r28
     1dc:	08 96       	adiw	r24, 0x08	; 8
     1de:	d8 df       	rcall	.-80     	; 0x190 <_ZN12Conductivity5ResetEv>
     1e0:	ce 01       	movw	r24, r28
     1e2:	4c 96       	adiw	r24, 0x1c	; 28
     1e4:	53 d6       	rcall	.+3238   	; 0xe8c <_ZN11Temperature5ResetEv>
     1e6:	ce 01       	movw	r24, r28
     1e8:	c0 96       	adiw	r24, 0x30	; 48
     1ea:	88 df       	rcall	.-240    	; 0xfc <_ZN10dblAverage6dResetEv>
     1ec:	fe 01       	movw	r30, r28
     1ee:	e2 51       	subi	r30, 0x12	; 18
     1f0:	ff 4f       	sbci	r31, 0xFF	; 255
     1f2:	10 82       	st	Z, r1
     1f4:	11 82       	std	Z+1, r1	; 0x01
     1f6:	12 82       	std	Z+2, r1	; 0x02
     1f8:	13 82       	std	Z+3, r1	; 0x03
     1fa:	34 96       	adiw	r30, 0x04	; 4
     1fc:	10 82       	st	Z, r1
     1fe:	11 82       	std	Z+1, r1	; 0x01
     200:	12 82       	std	Z+2, r1	; 0x02
     202:	13 82       	std	Z+3, r1	; 0x03
     204:	34 96       	adiw	r30, 0x04	; 4
     206:	10 82       	st	Z, r1
     208:	11 82       	std	Z+1, r1	; 0x01
     20a:	12 82       	std	Z+2, r1	; 0x02
     20c:	13 82       	std	Z+3, r1	; 0x03
     20e:	be 97       	sbiw	r30, 0x2e	; 46
     210:	10 82       	st	Z, r1
     212:	11 82       	std	Z+1, r1	; 0x01
     214:	12 82       	std	Z+2, r1	; 0x02
     216:	13 82       	std	Z+3, r1	; 0x03
     218:	c4 53       	subi	r28, 0x34	; 52
     21a:	df 4f       	sbci	r29, 0xFF	; 255
     21c:	84 e0       	ldi	r24, 0x04	; 4
     21e:	90 e0       	ldi	r25, 0x00	; 0
     220:	99 83       	std	Y+1, r25	; 0x01
     222:	88 83       	st	Y, r24
     224:	df 91       	pop	r29
     226:	cf 91       	pop	r28
     228:	08 95       	ret

0000022a <_ZN9Cond_Main12Cond_ExecuteEv>:
     22a:	8f 92       	push	r8
     22c:	9f 92       	push	r9
     22e:	af 92       	push	r10
     230:	bf 92       	push	r11
     232:	cf 92       	push	r12
     234:	df 92       	push	r13
     236:	ef 92       	push	r14
     238:	ff 92       	push	r15
     23a:	0f 93       	push	r16
     23c:	1f 93       	push	r17
     23e:	cf 93       	push	r28
     240:	df 93       	push	r29
     242:	ec 01       	movw	r28, r24
     244:	05 d5       	rcall	.+2570   	; 0xc50 <_ZN10PCBA20170514Get_Timer_FlagEv>
     246:	88 23       	and	r24, r24
     248:	09 f4       	brne	.+2      	; 0x24c <_ZN9Cond_Main12Cond_ExecuteEv+0x22>
     24a:	56 c2       	rjmp	.+1196   	; 0x6f8 <__LOCK_REGION_LENGTH__+0x2f8>
     24c:	80 91 7c 01 	lds	r24, 0x017C	; 0x80017c <_ZN10PCBA2017059Cond1FcntE>
     250:	90 91 7d 01 	lds	r25, 0x017D	; 0x80017d <_ZN10PCBA2017059Cond1FcntE+0x1>
     254:	a0 91 7e 01 	lds	r26, 0x017E	; 0x80017e <_ZN10PCBA2017059Cond1FcntE+0x2>
     258:	b0 91 7f 01 	lds	r27, 0x017F	; 0x80017f <_ZN10PCBA2017059Cond1FcntE+0x3>
     25c:	80 93 74 01 	sts	0x0174, r24	; 0x800174 <_ZN10PCBA2017056Cond1FE>
     260:	90 93 75 01 	sts	0x0175, r25	; 0x800175 <_ZN10PCBA2017056Cond1FE+0x1>
     264:	a0 93 76 01 	sts	0x0176, r26	; 0x800176 <_ZN10PCBA2017056Cond1FE+0x2>
     268:	b0 93 77 01 	sts	0x0177, r27	; 0x800177 <_ZN10PCBA2017056Cond1FE+0x3>
     26c:	10 92 7c 01 	sts	0x017C, r1	; 0x80017c <_ZN10PCBA2017059Cond1FcntE>
     270:	10 92 7d 01 	sts	0x017D, r1	; 0x80017d <_ZN10PCBA2017059Cond1FcntE+0x1>
     274:	10 92 7e 01 	sts	0x017E, r1	; 0x80017e <_ZN10PCBA2017059Cond1FcntE+0x2>
     278:	10 92 7f 01 	sts	0x017F, r1	; 0x80017f <_ZN10PCBA2017059Cond1FcntE+0x3>
     27c:	80 91 78 01 	lds	r24, 0x0178	; 0x800178 <_ZN10PCBA2017059Cond2FcntE>
     280:	90 91 79 01 	lds	r25, 0x0179	; 0x800179 <_ZN10PCBA2017059Cond2FcntE+0x1>
     284:	a0 91 7a 01 	lds	r26, 0x017A	; 0x80017a <_ZN10PCBA2017059Cond2FcntE+0x2>
     288:	b0 91 7b 01 	lds	r27, 0x017B	; 0x80017b <_ZN10PCBA2017059Cond2FcntE+0x3>
     28c:	80 93 70 01 	sts	0x0170, r24	; 0x800170 <_ZN10PCBA2017056Cond2FE>
     290:	90 93 71 01 	sts	0x0171, r25	; 0x800171 <_ZN10PCBA2017056Cond2FE+0x1>
     294:	a0 93 72 01 	sts	0x0172, r26	; 0x800172 <_ZN10PCBA2017056Cond2FE+0x2>
     298:	b0 93 73 01 	sts	0x0173, r27	; 0x800173 <_ZN10PCBA2017056Cond2FE+0x3>
     29c:	10 92 78 01 	sts	0x0178, r1	; 0x800178 <_ZN10PCBA2017059Cond2FcntE>
     2a0:	10 92 79 01 	sts	0x0179, r1	; 0x800179 <_ZN10PCBA2017059Cond2FcntE+0x1>
     2a4:	10 92 7a 01 	sts	0x017A, r1	; 0x80017a <_ZN10PCBA2017059Cond2FcntE+0x2>
     2a8:	10 92 7b 01 	sts	0x017B, r1	; 0x80017b <_ZN10PCBA2017059Cond2FcntE+0x3>
     2ac:	80 91 6c 01 	lds	r24, 0x016C	; 0x80016c <_ZN10PCBA2017059Temp1FcntE>
     2b0:	90 91 6d 01 	lds	r25, 0x016D	; 0x80016d <_ZN10PCBA2017059Temp1FcntE+0x1>
     2b4:	a0 91 6e 01 	lds	r26, 0x016E	; 0x80016e <_ZN10PCBA2017059Temp1FcntE+0x2>
     2b8:	b0 91 6f 01 	lds	r27, 0x016F	; 0x80016f <_ZN10PCBA2017059Temp1FcntE+0x3>
     2bc:	80 93 64 01 	sts	0x0164, r24	; 0x800164 <_ZN10PCBA2017056Temp1FE>
     2c0:	90 93 65 01 	sts	0x0165, r25	; 0x800165 <_ZN10PCBA2017056Temp1FE+0x1>
     2c4:	a0 93 66 01 	sts	0x0166, r26	; 0x800166 <_ZN10PCBA2017056Temp1FE+0x2>
     2c8:	b0 93 67 01 	sts	0x0167, r27	; 0x800167 <_ZN10PCBA2017056Temp1FE+0x3>
     2cc:	10 92 6c 01 	sts	0x016C, r1	; 0x80016c <_ZN10PCBA2017059Temp1FcntE>
     2d0:	10 92 6d 01 	sts	0x016D, r1	; 0x80016d <_ZN10PCBA2017059Temp1FcntE+0x1>
     2d4:	10 92 6e 01 	sts	0x016E, r1	; 0x80016e <_ZN10PCBA2017059Temp1FcntE+0x2>
     2d8:	10 92 6f 01 	sts	0x016F, r1	; 0x80016f <_ZN10PCBA2017059Temp1FcntE+0x3>
     2dc:	80 91 68 01 	lds	r24, 0x0168	; 0x800168 <_ZN10PCBA2017059Temp2FcntE>
     2e0:	90 91 69 01 	lds	r25, 0x0169	; 0x800169 <_ZN10PCBA2017059Temp2FcntE+0x1>
     2e4:	a0 91 6a 01 	lds	r26, 0x016A	; 0x80016a <_ZN10PCBA2017059Temp2FcntE+0x2>
     2e8:	b0 91 6b 01 	lds	r27, 0x016B	; 0x80016b <_ZN10PCBA2017059Temp2FcntE+0x3>
     2ec:	80 93 60 01 	sts	0x0160, r24	; 0x800160 <_ZN10PCBA2017056Temp2FE>
     2f0:	90 93 61 01 	sts	0x0161, r25	; 0x800161 <_ZN10PCBA2017056Temp2FE+0x1>
     2f4:	a0 93 62 01 	sts	0x0162, r26	; 0x800162 <_ZN10PCBA2017056Temp2FE+0x2>
     2f8:	b0 93 63 01 	sts	0x0163, r27	; 0x800163 <_ZN10PCBA2017056Temp2FE+0x3>
     2fc:	10 92 68 01 	sts	0x0168, r1	; 0x800168 <_ZN10PCBA2017059Temp2FcntE>
     300:	10 92 69 01 	sts	0x0169, r1	; 0x800169 <_ZN10PCBA2017059Temp2FcntE+0x1>
     304:	10 92 6a 01 	sts	0x016A, r1	; 0x80016a <_ZN10PCBA2017059Temp2FcntE+0x2>
     308:	10 92 6b 01 	sts	0x016B, r1	; 0x80016b <_ZN10PCBA2017059Temp2FcntE+0x3>
     30c:	81 e0       	ldi	r24, 0x01	; 1
     30e:	90 e0       	ldi	r25, 0x00	; 0
     310:	83 d3       	rcall	.+1798   	; 0xa18 <_ZN10PCBA20170510JUMPER_GetEi>
     312:	f8 2e       	mov	r15, r24
     314:	82 e0       	ldi	r24, 0x02	; 2
     316:	90 e0       	ldi	r25, 0x00	; 0
     318:	7f d3       	rcall	.+1790   	; 0xa18 <_ZN10PCBA20170510JUMPER_GetEi>
     31a:	8e 01       	movw	r16, r28
     31c:	02 55       	subi	r16, 0x52	; 82
     31e:	1f 4f       	sbci	r17, 0xFF	; 255
     320:	f1 10       	cpse	r15, r1
     322:	04 c0       	rjmp	.+8      	; 0x32c <__stack+0xcd>
     324:	f8 01       	movw	r30, r16
     326:	11 82       	std	Z+1, r1	; 0x01
     328:	10 82       	st	Z, r1
     32a:	05 c0       	rjmp	.+10     	; 0x336 <__stack+0xd7>
     32c:	21 e0       	ldi	r18, 0x01	; 1
     32e:	30 e0       	ldi	r19, 0x00	; 0
     330:	f8 01       	movw	r30, r16
     332:	31 83       	std	Z+1, r19	; 0x01
     334:	20 83       	st	Z, r18
     336:	88 23       	and	r24, r24
     338:	31 f0       	breq	.+12     	; 0x346 <__stack+0xe7>
     33a:	f8 01       	movw	r30, r16
     33c:	80 81       	ld	r24, Z
     33e:	91 81       	ldd	r25, Z+1	; 0x01
     340:	02 96       	adiw	r24, 0x02	; 2
     342:	91 83       	std	Z+1, r25	; 0x01
     344:	80 83       	st	Z, r24
     346:	61 d3       	rcall	.+1730   	; 0xa0a <_ZN10PCBA2017059Mplex_GetEv>
     348:	9e 01       	movw	r18, r28
     34a:	24 55       	subi	r18, 0x54	; 84
     34c:	3f 4f       	sbci	r19, 0xFF	; 255
     34e:	79 01       	movw	r14, r18
     350:	88 23       	and	r24, r24
     352:	19 f0       	breq	.+6      	; 0x35a <__stack+0xfb>
     354:	81 e0       	ldi	r24, 0x01	; 1
     356:	90 e0       	ldi	r25, 0x00	; 0
     358:	02 c0       	rjmp	.+4      	; 0x35e <__stack+0xff>
     35a:	82 e0       	ldi	r24, 0x02	; 2
     35c:	90 e0       	ldi	r25, 0x00	; 0
     35e:	f7 01       	movw	r30, r14
     360:	91 83       	std	Z+1, r25	; 0x01
     362:	80 83       	st	Z, r24
     364:	f7 01       	movw	r30, r14
     366:	80 81       	ld	r24, Z
     368:	91 81       	ldd	r25, Z+1	; 0x01
     36a:	01 97       	sbiw	r24, 0x01	; 1
     36c:	09 f0       	breq	.+2      	; 0x370 <__stack+0x111>
     36e:	51 c0       	rjmp	.+162    	; 0x412 <__LOCK_REGION_LENGTH__+0x12>
     370:	84 e0       	ldi	r24, 0x04	; 4
     372:	90 e0       	ldi	r25, 0x00	; 0
     374:	02 d4       	rcall	.+2052   	; 0xb7a <_ZN10PCBA20170511CalPot_ReadEi>
     376:	bc 01       	movw	r22, r24
     378:	ce 01       	movw	r24, r28
     37a:	88 5a       	subi	r24, 0xA8	; 168
     37c:	9f 4f       	sbci	r25, 0xFF	; 255
     37e:	64 de       	rcall	.-824    	; 0x48 <_ZN10intAverage8iAverageEi>
     380:	bc 01       	movw	r22, r24
     382:	ce 01       	movw	r24, r28
     384:	08 96       	adiw	r24, 0x08	; 8
     386:	f4 de       	rcall	.-536    	; 0x170 <_ZN12Conductivity16Calc_Cond_OffsetEi>
     388:	6e 01       	movw	r12, r28
     38a:	f0 eb       	ldi	r31, 0xB0	; 176
     38c:	cf 0e       	add	r12, r31
     38e:	d1 1c       	adc	r13, r1
     390:	f6 01       	movw	r30, r12
     392:	60 83       	st	Z, r22
     394:	71 83       	std	Z+1, r23	; 0x01
     396:	82 83       	std	Z+2, r24	; 0x02
     398:	93 83       	std	Z+3, r25	; 0x03
     39a:	85 e0       	ldi	r24, 0x05	; 5
     39c:	90 e0       	ldi	r25, 0x00	; 0
     39e:	ed d3       	rcall	.+2010   	; 0xb7a <_ZN10PCBA20170511CalPot_ReadEi>
     3a0:	bc 01       	movw	r22, r24
     3a2:	ce 01       	movw	r24, r28
     3a4:	80 58       	subi	r24, 0x80	; 128
     3a6:	9f 4f       	sbci	r25, 0xFF	; 255
     3a8:	4f de       	rcall	.-866    	; 0x48 <_ZN10intAverage8iAverageEi>
     3aa:	bc 01       	movw	r22, r24
     3ac:	ce 01       	movw	r24, r28
     3ae:	4c 96       	adiw	r24, 0x1c	; 28
     3b0:	5d d5       	rcall	.+2746   	; 0xe6c <_ZN11Temperature16Calc_Temp_OffsetEi>
     3b2:	fe 01       	movw	r30, r28
     3b4:	e8 54       	subi	r30, 0x48	; 72
     3b6:	ff 4f       	sbci	r31, 0xFF	; 255
     3b8:	60 83       	st	Z, r22
     3ba:	71 83       	std	Z+1, r23	; 0x01
     3bc:	82 83       	std	Z+2, r24	; 0x02
     3be:	93 83       	std	Z+3, r25	; 0x03
     3c0:	f6 01       	movw	r30, r12
     3c2:	80 80       	ld	r8, Z
     3c4:	91 80       	ldd	r9, Z+1	; 0x01
     3c6:	a2 80       	ldd	r10, Z+2	; 0x02
     3c8:	b3 80       	ldd	r11, Z+3	; 0x03
     3ca:	b2 96       	adiw	r30, 0x22	; 34
     3cc:	80 82       	st	Z, r8
     3ce:	91 82       	std	Z+1, r9	; 0x01
     3d0:	a2 82       	std	Z+2, r10	; 0x02
     3d2:	b3 82       	std	Z+3, r11	; 0x03
     3d4:	34 97       	sbiw	r30, 0x04	; 4
     3d6:	60 83       	st	Z, r22
     3d8:	71 83       	std	Z+1, r23	; 0x01
     3da:	82 83       	std	Z+2, r24	; 0x02
     3dc:	93 83       	std	Z+3, r25	; 0x03
     3de:	81 e0       	ldi	r24, 0x01	; 1
     3e0:	90 e0       	ldi	r25, 0x00	; 0
     3e2:	7d d3       	rcall	.+1786   	; 0xade <_ZN10PCBA20170514Cond_Read_FreqEi>
     3e4:	6e 01       	movw	r12, r28
     3e6:	f0 ec       	ldi	r31, 0xC0	; 192
     3e8:	cf 0e       	add	r12, r31
     3ea:	d1 1c       	adc	r13, r1
     3ec:	9b d6       	rcall	.+3382   	; 0x1124 <__floatsisf>
     3ee:	f6 01       	movw	r30, r12
     3f0:	60 83       	st	Z, r22
     3f2:	71 83       	std	Z+1, r23	; 0x01
     3f4:	82 83       	std	Z+2, r24	; 0x02
     3f6:	93 83       	std	Z+3, r25	; 0x03
     3f8:	81 e0       	ldi	r24, 0x01	; 1
     3fa:	90 e0       	ldi	r25, 0x00	; 0
     3fc:	87 d3       	rcall	.+1806   	; 0xb0c <_ZN10PCBA20170514Temp_Read_FreqEi>
     3fe:	6e 01       	movw	r12, r28
     400:	f4 ec       	ldi	r31, 0xC4	; 196
     402:	cf 0e       	add	r12, r31
     404:	d1 1c       	adc	r13, r1
     406:	8e d6       	rcall	.+3356   	; 0x1124 <__floatsisf>
     408:	f6 01       	movw	r30, r12
     40a:	60 83       	st	Z, r22
     40c:	71 83       	std	Z+1, r23	; 0x01
     40e:	82 83       	std	Z+2, r24	; 0x02
     410:	93 83       	std	Z+3, r25	; 0x03
     412:	f7 01       	movw	r30, r14
     414:	80 81       	ld	r24, Z
     416:	91 81       	ldd	r25, Z+1	; 0x01
     418:	02 97       	sbiw	r24, 0x02	; 2
     41a:	09 f0       	breq	.+2      	; 0x41e <__LOCK_REGION_LENGTH__+0x1e>
     41c:	51 c0       	rjmp	.+162    	; 0x4c0 <__LOCK_REGION_LENGTH__+0xc0>
     41e:	87 e0       	ldi	r24, 0x07	; 7
     420:	90 e0       	ldi	r25, 0x00	; 0
     422:	ab d3       	rcall	.+1878   	; 0xb7a <_ZN10PCBA20170511CalPot_ReadEi>
     424:	bc 01       	movw	r22, r24
     426:	ce 01       	movw	r24, r28
     428:	84 59       	subi	r24, 0x94	; 148
     42a:	9f 4f       	sbci	r25, 0xFF	; 255
     42c:	0d de       	rcall	.-998    	; 0x48 <_ZN10intAverage8iAverageEi>
     42e:	bc 01       	movw	r22, r24
     430:	ce 01       	movw	r24, r28
     432:	08 96       	adiw	r24, 0x08	; 8
     434:	9d de       	rcall	.-710    	; 0x170 <_ZN12Conductivity16Calc_Cond_OffsetEi>
     436:	7e 01       	movw	r14, r28
     438:	f4 eb       	ldi	r31, 0xB4	; 180
     43a:	ef 0e       	add	r14, r31
     43c:	f1 1c       	adc	r15, r1
     43e:	f7 01       	movw	r30, r14
     440:	60 83       	st	Z, r22
     442:	71 83       	std	Z+1, r23	; 0x01
     444:	82 83       	std	Z+2, r24	; 0x02
     446:	93 83       	std	Z+3, r25	; 0x03
     448:	86 e0       	ldi	r24, 0x06	; 6
     44a:	90 e0       	ldi	r25, 0x00	; 0
     44c:	96 d3       	rcall	.+1836   	; 0xb7a <_ZN10PCBA20170511CalPot_ReadEi>
     44e:	bc 01       	movw	r22, r24
     450:	ce 01       	movw	r24, r28
     452:	8c 56       	subi	r24, 0x6C	; 108
     454:	9f 4f       	sbci	r25, 0xFF	; 255
     456:	f8 dd       	rcall	.-1040   	; 0x48 <_ZN10intAverage8iAverageEi>
     458:	bc 01       	movw	r22, r24
     45a:	ce 01       	movw	r24, r28
     45c:	4c 96       	adiw	r24, 0x1c	; 28
     45e:	06 d5       	rcall	.+2572   	; 0xe6c <_ZN11Temperature16Calc_Temp_OffsetEi>
     460:	fe 01       	movw	r30, r28
     462:	e4 54       	subi	r30, 0x44	; 68
     464:	ff 4f       	sbci	r31, 0xFF	; 255
     466:	60 83       	st	Z, r22
     468:	71 83       	std	Z+1, r23	; 0x01
     46a:	82 83       	std	Z+2, r24	; 0x02
     46c:	93 83       	std	Z+3, r25	; 0x03
     46e:	f7 01       	movw	r30, r14
     470:	c0 80       	ld	r12, Z
     472:	d1 80       	ldd	r13, Z+1	; 0x01
     474:	e2 80       	ldd	r14, Z+2	; 0x02
     476:	f3 80       	ldd	r15, Z+3	; 0x03
     478:	7e 96       	adiw	r30, 0x1e	; 30
     47a:	c0 82       	st	Z, r12
     47c:	d1 82       	std	Z+1, r13	; 0x01
     47e:	e2 82       	std	Z+2, r14	; 0x02
     480:	f3 82       	std	Z+3, r15	; 0x03
     482:	34 97       	sbiw	r30, 0x04	; 4
     484:	60 83       	st	Z, r22
     486:	71 83       	std	Z+1, r23	; 0x01
     488:	82 83       	std	Z+2, r24	; 0x02
     48a:	93 83       	std	Z+3, r25	; 0x03
     48c:	82 e0       	ldi	r24, 0x02	; 2
     48e:	90 e0       	ldi	r25, 0x00	; 0
     490:	26 d3       	rcall	.+1612   	; 0xade <_ZN10PCBA20170514Cond_Read_FreqEi>
     492:	7e 01       	movw	r14, r28
     494:	f0 ec       	ldi	r31, 0xC0	; 192
     496:	ef 0e       	add	r14, r31
     498:	f1 1c       	adc	r15, r1
     49a:	44 d6       	rcall	.+3208   	; 0x1124 <__floatsisf>
     49c:	f7 01       	movw	r30, r14
     49e:	60 83       	st	Z, r22
     4a0:	71 83       	std	Z+1, r23	; 0x01
     4a2:	82 83       	std	Z+2, r24	; 0x02
     4a4:	93 83       	std	Z+3, r25	; 0x03
     4a6:	82 e0       	ldi	r24, 0x02	; 2
     4a8:	90 e0       	ldi	r25, 0x00	; 0
     4aa:	30 d3       	rcall	.+1632   	; 0xb0c <_ZN10PCBA20170514Temp_Read_FreqEi>
     4ac:	7e 01       	movw	r14, r28
     4ae:	f4 ec       	ldi	r31, 0xC4	; 196
     4b0:	ef 0e       	add	r14, r31
     4b2:	f1 1c       	adc	r15, r1
     4b4:	37 d6       	rcall	.+3182   	; 0x1124 <__floatsisf>
     4b6:	f7 01       	movw	r30, r14
     4b8:	60 83       	st	Z, r22
     4ba:	71 83       	std	Z+1, r23	; 0x01
     4bc:	82 83       	std	Z+2, r24	; 0x02
     4be:	93 83       	std	Z+3, r25	; 0x03
     4c0:	f8 01       	movw	r30, r16
     4c2:	80 81       	ld	r24, Z
     4c4:	91 81       	ldd	r25, Z+1	; 0x01
     4c6:	8e 01       	movw	r16, r28
     4c8:	06 55       	subi	r16, 0x56	; 86
     4ca:	1f 4f       	sbci	r17, 0xFF	; 255
     4cc:	81 30       	cpi	r24, 0x01	; 1
     4ce:	91 05       	cpc	r25, r1
     4d0:	09 f4       	brne	.+2      	; 0x4d4 <__LOCK_REGION_LENGTH__+0xd4>
     4d2:	67 c0       	rjmp	.+206    	; 0x5a2 <__LOCK_REGION_LENGTH__+0x1a2>
     4d4:	0c f0       	brlt	.+2      	; 0x4d8 <__LOCK_REGION_LENGTH__+0xd8>
     4d6:	5e c0       	rjmp	.+188    	; 0x594 <__LOCK_REGION_LENGTH__+0x194>
     4d8:	89 2b       	or	r24, r25
     4da:	09 f0       	breq	.+2      	; 0x4de <__LOCK_REGION_LENGTH__+0xde>
     4dc:	c4 c0       	rjmp	.+392    	; 0x666 <__LOCK_REGION_LENGTH__+0x266>
     4de:	fe 01       	movw	r30, r28
     4e0:	e0 54       	subi	r30, 0x40	; 64
     4e2:	ff 4f       	sbci	r31, 0xFF	; 255
     4e4:	40 81       	ld	r20, Z
     4e6:	51 81       	ldd	r21, Z+1	; 0x01
     4e8:	62 81       	ldd	r22, Z+2	; 0x02
     4ea:	73 81       	ldd	r23, Z+3	; 0x03
     4ec:	7e 01       	movw	r14, r28
     4ee:	f8 e0       	ldi	r31, 0x08	; 8
     4f0:	ef 0e       	add	r14, r31
     4f2:	f1 1c       	adc	r15, r1
     4f4:	c7 01       	movw	r24, r14
     4f6:	0f de       	rcall	.-994    	; 0x116 <_ZN12Conductivity12Get_Cond_RawEd>
     4f8:	9b 01       	movw	r18, r22
     4fa:	ac 01       	movw	r20, r24
     4fc:	fe 01       	movw	r30, r28
     4fe:	e6 52       	subi	r30, 0x26	; 38
     500:	ff 4f       	sbci	r31, 0xFF	; 255
     502:	60 83       	st	Z, r22
     504:	71 83       	std	Z+1, r23	; 0x01
     506:	82 83       	std	Z+2, r24	; 0x02
     508:	93 83       	std	Z+3, r25	; 0x03
     50a:	5e 01       	movw	r10, r28
     50c:	8e ed       	ldi	r24, 0xDE	; 222
     50e:	a8 0e       	add	r10, r24
     510:	b1 1c       	adc	r11, r1
     512:	38 97       	sbiw	r30, 0x08	; 8
     514:	60 81       	ld	r22, Z
     516:	71 81       	ldd	r23, Z+1	; 0x01
     518:	82 81       	ldd	r24, Z+2	; 0x02
     51a:	93 81       	ldd	r25, Z+3	; 0x03
     51c:	00 d5       	rcall	.+2560   	; 0xf1e <__addsf3>
     51e:	f5 01       	movw	r30, r10
     520:	60 83       	st	Z, r22
     522:	71 83       	std	Z+1, r23	; 0x01
     524:	82 83       	std	Z+2, r24	; 0x02
     526:	93 83       	std	Z+3, r25	; 0x03
     528:	7a 97       	sbiw	r30, 0x1a	; 26
     52a:	40 81       	ld	r20, Z
     52c:	51 81       	ldd	r21, Z+1	; 0x01
     52e:	62 81       	ldd	r22, Z+2	; 0x02
     530:	73 81       	ldd	r23, Z+3	; 0x03
     532:	6e 01       	movw	r12, r28
     534:	fc e1       	ldi	r31, 0x1C	; 28
     536:	cf 0e       	add	r12, r31
     538:	d1 1c       	adc	r13, r1
     53a:	c6 01       	movw	r24, r12
     53c:	82 d4       	rcall	.+2308   	; 0xe42 <_ZN11Temperature12Get_Temp_RawEd>
     53e:	fe 01       	movw	r30, r28
     540:	ea 51       	subi	r30, 0x1A	; 26
     542:	ff 4f       	sbci	r31, 0xFF	; 255
     544:	60 83       	st	Z, r22
     546:	71 83       	std	Z+1, r23	; 0x01
     548:	82 83       	std	Z+2, r24	; 0x02
     54a:	93 83       	std	Z+3, r25	; 0x03
     54c:	78 97       	sbiw	r30, 0x18	; 24
     54e:	20 81       	ld	r18, Z
     550:	31 81       	ldd	r19, Z+1	; 0x01
     552:	42 81       	ldd	r20, Z+2	; 0x02
     554:	53 81       	ldd	r21, Z+3	; 0x03
     556:	e3 d4       	rcall	.+2502   	; 0xf1e <__addsf3>
     558:	ab 01       	movw	r20, r22
     55a:	bc 01       	movw	r22, r24
     55c:	fe 01       	movw	r30, r28
     55e:	e6 51       	subi	r30, 0x16	; 22
     560:	ff 4f       	sbci	r31, 0xFF	; 255
     562:	40 83       	st	Z, r20
     564:	51 83       	std	Z+1, r21	; 0x01
     566:	62 83       	std	Z+2, r22	; 0x02
     568:	73 83       	std	Z+3, r23	; 0x03
     56a:	c6 01       	movw	r24, r12
     56c:	45 d4       	rcall	.+2186   	; 0xdf8 <_ZN11Temperature24Temp_Compensation_FactorEd>
     56e:	fe 01       	movw	r30, r28
     570:	ea 52       	subi	r30, 0x2A	; 42
     572:	ff 4f       	sbci	r31, 0xFF	; 255
     574:	60 83       	st	Z, r22
     576:	71 83       	std	Z+1, r23	; 0x01
     578:	82 83       	std	Z+2, r24	; 0x02
     57a:	93 83       	std	Z+3, r25	; 0x03
     57c:	f5 01       	movw	r30, r10
     57e:	20 81       	ld	r18, Z
     580:	31 81       	ldd	r19, Z+1	; 0x01
     582:	42 81       	ldd	r20, Z+2	; 0x02
     584:	53 81       	ldd	r21, Z+3	; 0x03
     586:	82 d6       	rcall	.+3332   	; 0x128c <__mulsf3>
     588:	ab 01       	movw	r20, r22
     58a:	bc 01       	movw	r22, r24
     58c:	fe 01       	movw	r30, r28
     58e:	ee 51       	subi	r30, 0x1E	; 30
     590:	ff 4f       	sbci	r31, 0xFF	; 255
     592:	4e c0       	rjmp	.+156    	; 0x630 <__LOCK_REGION_LENGTH__+0x230>
     594:	82 30       	cpi	r24, 0x02	; 2
     596:	91 05       	cpc	r25, r1
     598:	61 f1       	breq	.+88     	; 0x5f2 <__LOCK_REGION_LENGTH__+0x1f2>
     59a:	03 97       	sbiw	r24, 0x03	; 3
     59c:	09 f4       	brne	.+2      	; 0x5a0 <__LOCK_REGION_LENGTH__+0x1a0>
     59e:	4f c0       	rjmp	.+158    	; 0x63e <__LOCK_REGION_LENGTH__+0x23e>
     5a0:	62 c0       	rjmp	.+196    	; 0x666 <__LOCK_REGION_LENGTH__+0x266>
     5a2:	fe 01       	movw	r30, r28
     5a4:	ec 53       	subi	r30, 0x3C	; 60
     5a6:	ff 4f       	sbci	r31, 0xFF	; 255
     5a8:	40 81       	ld	r20, Z
     5aa:	51 81       	ldd	r21, Z+1	; 0x01
     5ac:	62 81       	ldd	r22, Z+2	; 0x02
     5ae:	73 81       	ldd	r23, Z+3	; 0x03
     5b0:	7e 01       	movw	r14, r28
     5b2:	fc e1       	ldi	r31, 0x1C	; 28
     5b4:	ef 0e       	add	r14, r31
     5b6:	f1 1c       	adc	r15, r1
     5b8:	c7 01       	movw	r24, r14
     5ba:	43 d4       	rcall	.+2182   	; 0xe42 <_ZN11Temperature12Get_Temp_RawEd>
     5bc:	fe 01       	movw	r30, r28
     5be:	ea 51       	subi	r30, 0x1A	; 26
     5c0:	ff 4f       	sbci	r31, 0xFF	; 255
     5c2:	60 83       	st	Z, r22
     5c4:	71 83       	std	Z+1, r23	; 0x01
     5c6:	82 83       	std	Z+2, r24	; 0x02
     5c8:	93 83       	std	Z+3, r25	; 0x03
     5ca:	78 97       	sbiw	r30, 0x18	; 24
     5cc:	20 81       	ld	r18, Z
     5ce:	31 81       	ldd	r19, Z+1	; 0x01
     5d0:	42 81       	ldd	r20, Z+2	; 0x02
     5d2:	53 81       	ldd	r21, Z+3	; 0x03
     5d4:	a4 d4       	rcall	.+2376   	; 0xf1e <__addsf3>
     5d6:	ab 01       	movw	r20, r22
     5d8:	bc 01       	movw	r22, r24
     5da:	fe 01       	movw	r30, r28
     5dc:	e6 51       	subi	r30, 0x16	; 22
     5de:	ff 4f       	sbci	r31, 0xFF	; 255
     5e0:	40 83       	st	Z, r20
     5e2:	51 83       	std	Z+1, r21	; 0x01
     5e4:	62 83       	std	Z+2, r22	; 0x02
     5e6:	73 83       	std	Z+3, r23	; 0x03
     5e8:	c7 01       	movw	r24, r14
     5ea:	38 d4       	rcall	.+2160   	; 0xe5c <_ZN11Temperature10Temp_VoltsEd>
     5ec:	6b 01       	movw	r12, r22
     5ee:	7c 01       	movw	r14, r24
     5f0:	3d c0       	rjmp	.+122    	; 0x66c <__LOCK_REGION_LENGTH__+0x26c>
     5f2:	fe 01       	movw	r30, r28
     5f4:	e0 54       	subi	r30, 0x40	; 64
     5f6:	ff 4f       	sbci	r31, 0xFF	; 255
     5f8:	40 81       	ld	r20, Z
     5fa:	51 81       	ldd	r21, Z+1	; 0x01
     5fc:	62 81       	ldd	r22, Z+2	; 0x02
     5fe:	73 81       	ldd	r23, Z+3	; 0x03
     600:	7e 01       	movw	r14, r28
     602:	28 e0       	ldi	r18, 0x08	; 8
     604:	e2 0e       	add	r14, r18
     606:	f1 1c       	adc	r15, r1
     608:	c7 01       	movw	r24, r14
     60a:	85 dd       	rcall	.-1270   	; 0x116 <_ZN12Conductivity12Get_Cond_RawEd>
     60c:	fe 01       	movw	r30, r28
     60e:	e6 52       	subi	r30, 0x26	; 38
     610:	ff 4f       	sbci	r31, 0xFF	; 255
     612:	60 83       	st	Z, r22
     614:	71 83       	std	Z+1, r23	; 0x01
     616:	82 83       	std	Z+2, r24	; 0x02
     618:	93 83       	std	Z+3, r25	; 0x03
     61a:	38 97       	sbiw	r30, 0x08	; 8
     61c:	20 81       	ld	r18, Z
     61e:	31 81       	ldd	r19, Z+1	; 0x01
     620:	42 81       	ldd	r20, Z+2	; 0x02
     622:	53 81       	ldd	r21, Z+3	; 0x03
     624:	7c d4       	rcall	.+2296   	; 0xf1e <__addsf3>
     626:	ab 01       	movw	r20, r22
     628:	bc 01       	movw	r22, r24
     62a:	fe 01       	movw	r30, r28
     62c:	e2 52       	subi	r30, 0x22	; 34
     62e:	ff 4f       	sbci	r31, 0xFF	; 255
     630:	40 83       	st	Z, r20
     632:	51 83       	std	Z+1, r21	; 0x01
     634:	62 83       	std	Z+2, r22	; 0x02
     636:	73 83       	std	Z+3, r23	; 0x03
     638:	c7 01       	movw	r24, r14
     63a:	92 dd       	rcall	.-1244   	; 0x160 <_ZN12Conductivity10Cond_VoltsEd>
     63c:	d7 cf       	rjmp	.-82     	; 0x5ec <__LOCK_REGION_LENGTH__+0x1ec>
     63e:	f8 01       	movw	r30, r16
     640:	80 81       	ld	r24, Z
     642:	91 81       	ldd	r25, Z+1	; 0x01
     644:	8a 30       	cpi	r24, 0x0A	; 10
     646:	91 05       	cpc	r25, r1
     648:	44 f0       	brlt	.+16     	; 0x65a <__LOCK_REGION_LENGTH__+0x25a>
     64a:	89 97       	sbiw	r24, 0x29	; 41
     64c:	64 f0       	brlt	.+24     	; 0x666 <__LOCK_REGION_LENGTH__+0x266>
     64e:	c1 2c       	mov	r12, r1
     650:	d1 2c       	mov	r13, r1
     652:	e1 2c       	mov	r14, r1
     654:	90 e4       	ldi	r25, 0x40	; 64
     656:	f9 2e       	mov	r15, r25
     658:	09 c0       	rjmp	.+18     	; 0x66c <__LOCK_REGION_LENGTH__+0x26c>
     65a:	c1 2c       	mov	r12, r1
     65c:	d1 2c       	mov	r13, r1
     65e:	e1 2c       	mov	r14, r1
     660:	8f e3       	ldi	r24, 0x3F	; 63
     662:	f8 2e       	mov	r15, r24
     664:	03 c0       	rjmp	.+6      	; 0x66c <__LOCK_REGION_LENGTH__+0x26c>
     666:	c1 2c       	mov	r12, r1
     668:	d1 2c       	mov	r13, r1
     66a:	76 01       	movw	r14, r12
     66c:	be d2       	rcall	.+1404   	; 0xbea <_ZN10PCBA20170514WatchDog_TouchEv>
     66e:	5e 01       	movw	r10, r28
     670:	f9 ea       	ldi	r31, 0xA9	; 169
     672:	af 0e       	add	r10, r31
     674:	b1 1c       	adc	r11, r1
     676:	f5 01       	movw	r30, r10
     678:	80 81       	ld	r24, Z
     67a:	81 11       	cpse	r24, r1
     67c:	0a c0       	rjmp	.+20     	; 0x692 <__LOCK_REGION_LENGTH__+0x292>
     67e:	f8 01       	movw	r30, r16
     680:	80 81       	ld	r24, Z
     682:	91 81       	ldd	r25, Z+1	; 0x01
     684:	4e 97       	sbiw	r24, 0x1e	; 30
     686:	29 f4       	brne	.+10     	; 0x692 <__LOCK_REGION_LENGTH__+0x292>
     688:	ce 01       	movw	r24, r28
     68a:	43 d0       	rcall	.+134    	; 0x712 <_ZN9Cond_Main11Debug_WriteEv>
     68c:	81 e0       	ldi	r24, 0x01	; 1
     68e:	f5 01       	movw	r30, r10
     690:	80 83       	st	Z, r24
     692:	b7 01       	movw	r22, r14
     694:	a6 01       	movw	r20, r12
     696:	ce 01       	movw	r24, r28
     698:	c0 96       	adiw	r24, 0x30	; 48
     69a:	f6 dc       	rcall	.-1556   	; 0x88 <_ZN10dblAverage8dAverageEd>
     69c:	4b 01       	movw	r8, r22
     69e:	5c 01       	movw	r10, r24
     6a0:	fe 01       	movw	r30, r28
     6a2:	ee 50       	subi	r30, 0x0E	; 14
     6a4:	ff 4f       	sbci	r31, 0xFF	; 255
     6a6:	60 83       	st	Z, r22
     6a8:	71 83       	std	Z+1, r23	; 0x01
     6aa:	82 83       	std	Z+2, r24	; 0x02
     6ac:	93 83       	std	Z+3, r25	; 0x03
     6ae:	c2 51       	subi	r28, 0x12	; 18
     6b0:	df 4f       	sbci	r29, 0xFF	; 255
     6b2:	20 e0       	ldi	r18, 0x00	; 0
     6b4:	30 e0       	ldi	r19, 0x00	; 0
     6b6:	40 e8       	ldi	r20, 0x80	; 128
     6b8:	50 e4       	ldi	r21, 0x40	; 64
     6ba:	68 81       	ld	r22, Y
     6bc:	79 81       	ldd	r23, Y+1	; 0x01
     6be:	8a 81       	ldd	r24, Y+2	; 0x02
     6c0:	9b 81       	ldd	r25, Y+3	; 0x03
     6c2:	e4 d5       	rcall	.+3016   	; 0x128c <__mulsf3>
     6c4:	a5 01       	movw	r20, r10
     6c6:	94 01       	movw	r18, r8
     6c8:	2a d4       	rcall	.+2132   	; 0xf1e <__addsf3>
     6ca:	20 e0       	ldi	r18, 0x00	; 0
     6cc:	30 e0       	ldi	r19, 0x00	; 0
     6ce:	40 ea       	ldi	r20, 0xA0	; 160
     6d0:	50 e4       	ldi	r21, 0x40	; 64
     6d2:	8d d4       	rcall	.+2330   	; 0xfee <__divsf3>
     6d4:	68 83       	st	Y, r22
     6d6:	79 83       	std	Y+1, r23	; 0x01
     6d8:	8a 83       	std	Y+2, r24	; 0x02
     6da:	9b 83       	std	Y+3, r25	; 0x03
     6dc:	c7 01       	movw	r24, r14
     6de:	b6 01       	movw	r22, r12
     6e0:	76 d2       	rcall	.+1260   	; 0xbce <_ZN10PCBA2017057PWM_SetEd>
     6e2:	f8 01       	movw	r30, r16
     6e4:	80 81       	ld	r24, Z
     6e6:	91 81       	ldd	r25, Z+1	; 0x01
     6e8:	88 3e       	cpi	r24, 0xE8	; 232
     6ea:	f3 e0       	ldi	r31, 0x03	; 3
     6ec:	9f 07       	cpc	r25, r31
     6ee:	24 f4       	brge	.+8      	; 0x6f8 <__LOCK_REGION_LENGTH__+0x2f8>
     6f0:	01 96       	adiw	r24, 0x01	; 1
     6f2:	f8 01       	movw	r30, r16
     6f4:	91 83       	std	Z+1, r25	; 0x01
     6f6:	80 83       	st	Z, r24
     6f8:	df 91       	pop	r29
     6fa:	cf 91       	pop	r28
     6fc:	1f 91       	pop	r17
     6fe:	0f 91       	pop	r16
     700:	ff 90       	pop	r15
     702:	ef 90       	pop	r14
     704:	df 90       	pop	r13
     706:	cf 90       	pop	r12
     708:	bf 90       	pop	r11
     70a:	af 90       	pop	r10
     70c:	9f 90       	pop	r9
     70e:	8f 90       	pop	r8
     710:	08 95       	ret

00000712 <_ZN9Cond_Main11Debug_WriteEv>:
     712:	cf 93       	push	r28
     714:	df 93       	push	r29
     716:	ec 01       	movw	r28, r24
     718:	44 e3       	ldi	r20, 0x34	; 52
     71a:	52 e1       	ldi	r21, 0x12	; 18
     71c:	60 e4       	ldi	r22, 0x40	; 64
     71e:	70 e0       	ldi	r23, 0x00	; 0
     720:	fe d0       	rcall	.+508    	; 0x91e <_ZN6EEProm11WriteWordEEEii>
     722:	fe 01       	movw	r30, r28
     724:	e4 55       	subi	r30, 0x54	; 84
     726:	ff 4f       	sbci	r31, 0xFF	; 255
     728:	40 81       	ld	r20, Z
     72a:	51 81       	ldd	r21, Z+1	; 0x01
     72c:	62 e4       	ldi	r22, 0x42	; 66
     72e:	70 e0       	ldi	r23, 0x00	; 0
     730:	ce 01       	movw	r24, r28
     732:	f5 d0       	rcall	.+490    	; 0x91e <_ZN6EEProm11WriteWordEEEii>
     734:	fe 01       	movw	r30, r28
     736:	e2 55       	subi	r30, 0x52	; 82
     738:	ff 4f       	sbci	r31, 0xFF	; 255
     73a:	40 81       	ld	r20, Z
     73c:	51 81       	ldd	r21, Z+1	; 0x01
     73e:	64 e4       	ldi	r22, 0x44	; 68
     740:	70 e0       	ldi	r23, 0x00	; 0
     742:	ce 01       	movw	r24, r28
     744:	ec d0       	rcall	.+472    	; 0x91e <_ZN6EEProm11WriteWordEEEii>
     746:	fe 01       	movw	r30, r28
     748:	e6 55       	subi	r30, 0x56	; 86
     74a:	ff 4f       	sbci	r31, 0xFF	; 255
     74c:	40 81       	ld	r20, Z
     74e:	51 81       	ldd	r21, Z+1	; 0x01
     750:	66 e4       	ldi	r22, 0x46	; 70
     752:	70 e0       	ldi	r23, 0x00	; 0
     754:	ce 01       	movw	r24, r28
     756:	e3 d0       	rcall	.+454    	; 0x91e <_ZN6EEProm11WriteWordEEEii>
     758:	68 e4       	ldi	r22, 0x48	; 72
     75a:	70 e0       	ldi	r23, 0x00	; 0
     75c:	ce 01       	movw	r24, r28
     75e:	10 d1       	rcall	.+544    	; 0x980 <_ZN6EEProm10ReadWordEEEi>
     760:	ac 01       	movw	r20, r24
     762:	4f 5f       	subi	r20, 0xFF	; 255
     764:	5f 4f       	sbci	r21, 0xFF	; 255
     766:	68 e4       	ldi	r22, 0x48	; 72
     768:	70 e0       	ldi	r23, 0x00	; 0
     76a:	ce 01       	movw	r24, r28
     76c:	d8 d0       	rcall	.+432    	; 0x91e <_ZN6EEProm11WriteWordEEEii>
     76e:	fe 01       	movw	r30, r28
     770:	e0 54       	subi	r30, 0x40	; 64
     772:	ff 4f       	sbci	r31, 0xFF	; 255
     774:	60 81       	ld	r22, Z
     776:	71 81       	ldd	r23, Z+1	; 0x01
     778:	82 81       	ldd	r24, Z+2	; 0x02
     77a:	93 81       	ldd	r25, Z+3	; 0x03
     77c:	a0 d4       	rcall	.+2368   	; 0x10be <__fixsfsi>
     77e:	ab 01       	movw	r20, r22
     780:	60 e5       	ldi	r22, 0x50	; 80
     782:	70 e0       	ldi	r23, 0x00	; 0
     784:	ce 01       	movw	r24, r28
     786:	cb d0       	rcall	.+406    	; 0x91e <_ZN6EEProm11WriteWordEEEii>
     788:	fe 01       	movw	r30, r28
     78a:	ee 52       	subi	r30, 0x2E	; 46
     78c:	ff 4f       	sbci	r31, 0xFF	; 255
     78e:	20 e0       	ldi	r18, 0x00	; 0
     790:	30 e0       	ldi	r19, 0x00	; 0
     792:	48 ec       	ldi	r20, 0xC8	; 200
     794:	52 e4       	ldi	r21, 0x42	; 66
     796:	60 81       	ld	r22, Z
     798:	71 81       	ldd	r23, Z+1	; 0x01
     79a:	82 81       	ldd	r24, Z+2	; 0x02
     79c:	93 81       	ldd	r25, Z+3	; 0x03
     79e:	76 d5       	rcall	.+2796   	; 0x128c <__mulsf3>
     7a0:	8e d4       	rcall	.+2332   	; 0x10be <__fixsfsi>
     7a2:	ab 01       	movw	r20, r22
     7a4:	62 e5       	ldi	r22, 0x52	; 82
     7a6:	70 e0       	ldi	r23, 0x00	; 0
     7a8:	ce 01       	movw	r24, r28
     7aa:	b9 d0       	rcall	.+370    	; 0x91e <_ZN6EEProm11WriteWordEEEii>
     7ac:	fe 01       	movw	r30, r28
     7ae:	e6 52       	subi	r30, 0x26	; 38
     7b0:	ff 4f       	sbci	r31, 0xFF	; 255
     7b2:	20 e0       	ldi	r18, 0x00	; 0
     7b4:	30 e0       	ldi	r19, 0x00	; 0
     7b6:	48 ec       	ldi	r20, 0xC8	; 200
     7b8:	52 e4       	ldi	r21, 0x42	; 66
     7ba:	60 81       	ld	r22, Z
     7bc:	71 81       	ldd	r23, Z+1	; 0x01
     7be:	82 81       	ldd	r24, Z+2	; 0x02
     7c0:	93 81       	ldd	r25, Z+3	; 0x03
     7c2:	64 d5       	rcall	.+2760   	; 0x128c <__mulsf3>
     7c4:	7c d4       	rcall	.+2296   	; 0x10be <__fixsfsi>
     7c6:	ab 01       	movw	r20, r22
     7c8:	64 e5       	ldi	r22, 0x54	; 84
     7ca:	70 e0       	ldi	r23, 0x00	; 0
     7cc:	ce 01       	movw	r24, r28
     7ce:	a7 d0       	rcall	.+334    	; 0x91e <_ZN6EEProm11WriteWordEEEii>
     7d0:	fe 01       	movw	r30, r28
     7d2:	e2 52       	subi	r30, 0x22	; 34
     7d4:	ff 4f       	sbci	r31, 0xFF	; 255
     7d6:	20 e0       	ldi	r18, 0x00	; 0
     7d8:	30 e0       	ldi	r19, 0x00	; 0
     7da:	48 ec       	ldi	r20, 0xC8	; 200
     7dc:	52 e4       	ldi	r21, 0x42	; 66
     7de:	60 81       	ld	r22, Z
     7e0:	71 81       	ldd	r23, Z+1	; 0x01
     7e2:	82 81       	ldd	r24, Z+2	; 0x02
     7e4:	93 81       	ldd	r25, Z+3	; 0x03
     7e6:	52 d5       	rcall	.+2724   	; 0x128c <__mulsf3>
     7e8:	6a d4       	rcall	.+2260   	; 0x10be <__fixsfsi>
     7ea:	ab 01       	movw	r20, r22
     7ec:	66 e5       	ldi	r22, 0x56	; 86
     7ee:	70 e0       	ldi	r23, 0x00	; 0
     7f0:	ce 01       	movw	r24, r28
     7f2:	95 d0       	rcall	.+298    	; 0x91e <_ZN6EEProm11WriteWordEEEii>
     7f4:	fe 01       	movw	r30, r28
     7f6:	ee 51       	subi	r30, 0x1E	; 30
     7f8:	ff 4f       	sbci	r31, 0xFF	; 255
     7fa:	20 e0       	ldi	r18, 0x00	; 0
     7fc:	30 e0       	ldi	r19, 0x00	; 0
     7fe:	48 ec       	ldi	r20, 0xC8	; 200
     800:	52 e4       	ldi	r21, 0x42	; 66
     802:	60 81       	ld	r22, Z
     804:	71 81       	ldd	r23, Z+1	; 0x01
     806:	82 81       	ldd	r24, Z+2	; 0x02
     808:	93 81       	ldd	r25, Z+3	; 0x03
     80a:	40 d5       	rcall	.+2688   	; 0x128c <__mulsf3>
     80c:	58 d4       	rcall	.+2224   	; 0x10be <__fixsfsi>
     80e:	ab 01       	movw	r20, r22
     810:	68 e5       	ldi	r22, 0x58	; 88
     812:	70 e0       	ldi	r23, 0x00	; 0
     814:	ce 01       	movw	r24, r28
     816:	83 d0       	rcall	.+262    	; 0x91e <_ZN6EEProm11WriteWordEEEii>
     818:	fe 01       	movw	r30, r28
     81a:	e2 51       	subi	r30, 0x12	; 18
     81c:	ff 4f       	sbci	r31, 0xFF	; 255
     81e:	20 e0       	ldi	r18, 0x00	; 0
     820:	30 e0       	ldi	r19, 0x00	; 0
     822:	48 ec       	ldi	r20, 0xC8	; 200
     824:	52 e4       	ldi	r21, 0x42	; 66
     826:	60 81       	ld	r22, Z
     828:	71 81       	ldd	r23, Z+1	; 0x01
     82a:	82 81       	ldd	r24, Z+2	; 0x02
     82c:	93 81       	ldd	r25, Z+3	; 0x03
     82e:	2e d5       	rcall	.+2652   	; 0x128c <__mulsf3>
     830:	46 d4       	rcall	.+2188   	; 0x10be <__fixsfsi>
     832:	ab 01       	movw	r20, r22
     834:	6a e5       	ldi	r22, 0x5A	; 90
     836:	70 e0       	ldi	r23, 0x00	; 0
     838:	ce 01       	movw	r24, r28
     83a:	71 d0       	rcall	.+226    	; 0x91e <_ZN6EEProm11WriteWordEEEii>
     83c:	fe 01       	movw	r30, r28
     83e:	ec 53       	subi	r30, 0x3C	; 60
     840:	ff 4f       	sbci	r31, 0xFF	; 255
     842:	60 81       	ld	r22, Z
     844:	71 81       	ldd	r23, Z+1	; 0x01
     846:	82 81       	ldd	r24, Z+2	; 0x02
     848:	93 81       	ldd	r25, Z+3	; 0x03
     84a:	39 d4       	rcall	.+2162   	; 0x10be <__fixsfsi>
     84c:	ab 01       	movw	r20, r22
     84e:	60 e6       	ldi	r22, 0x60	; 96
     850:	70 e0       	ldi	r23, 0x00	; 0
     852:	ce 01       	movw	r24, r28
     854:	64 d0       	rcall	.+200    	; 0x91e <_ZN6EEProm11WriteWordEEEii>
     856:	fe 01       	movw	r30, r28
     858:	e2 53       	subi	r30, 0x32	; 50
     85a:	ff 4f       	sbci	r31, 0xFF	; 255
     85c:	20 e0       	ldi	r18, 0x00	; 0
     85e:	30 e0       	ldi	r19, 0x00	; 0
     860:	48 ec       	ldi	r20, 0xC8	; 200
     862:	52 e4       	ldi	r21, 0x42	; 66
     864:	60 81       	ld	r22, Z
     866:	71 81       	ldd	r23, Z+1	; 0x01
     868:	82 81       	ldd	r24, Z+2	; 0x02
     86a:	93 81       	ldd	r25, Z+3	; 0x03
     86c:	0f d5       	rcall	.+2590   	; 0x128c <__mulsf3>
     86e:	27 d4       	rcall	.+2126   	; 0x10be <__fixsfsi>
     870:	ab 01       	movw	r20, r22
     872:	62 e6       	ldi	r22, 0x62	; 98
     874:	70 e0       	ldi	r23, 0x00	; 0
     876:	ce 01       	movw	r24, r28
     878:	52 d0       	rcall	.+164    	; 0x91e <_ZN6EEProm11WriteWordEEEii>
     87a:	fe 01       	movw	r30, r28
     87c:	ea 51       	subi	r30, 0x1A	; 26
     87e:	ff 4f       	sbci	r31, 0xFF	; 255
     880:	20 e0       	ldi	r18, 0x00	; 0
     882:	30 e0       	ldi	r19, 0x00	; 0
     884:	48 ec       	ldi	r20, 0xC8	; 200
     886:	52 e4       	ldi	r21, 0x42	; 66
     888:	60 81       	ld	r22, Z
     88a:	71 81       	ldd	r23, Z+1	; 0x01
     88c:	82 81       	ldd	r24, Z+2	; 0x02
     88e:	93 81       	ldd	r25, Z+3	; 0x03
     890:	fd d4       	rcall	.+2554   	; 0x128c <__mulsf3>
     892:	15 d4       	rcall	.+2090   	; 0x10be <__fixsfsi>
     894:	ab 01       	movw	r20, r22
     896:	64 e6       	ldi	r22, 0x64	; 100
     898:	70 e0       	ldi	r23, 0x00	; 0
     89a:	ce 01       	movw	r24, r28
     89c:	40 d0       	rcall	.+128    	; 0x91e <_ZN6EEProm11WriteWordEEEii>
     89e:	fe 01       	movw	r30, r28
     8a0:	e6 51       	subi	r30, 0x16	; 22
     8a2:	ff 4f       	sbci	r31, 0xFF	; 255
     8a4:	20 e0       	ldi	r18, 0x00	; 0
     8a6:	30 e0       	ldi	r19, 0x00	; 0
     8a8:	48 ec       	ldi	r20, 0xC8	; 200
     8aa:	52 e4       	ldi	r21, 0x42	; 66
     8ac:	60 81       	ld	r22, Z
     8ae:	71 81       	ldd	r23, Z+1	; 0x01
     8b0:	82 81       	ldd	r24, Z+2	; 0x02
     8b2:	93 81       	ldd	r25, Z+3	; 0x03
     8b4:	eb d4       	rcall	.+2518   	; 0x128c <__mulsf3>
     8b6:	03 d4       	rcall	.+2054   	; 0x10be <__fixsfsi>
     8b8:	ab 01       	movw	r20, r22
     8ba:	66 e6       	ldi	r22, 0x66	; 102
     8bc:	70 e0       	ldi	r23, 0x00	; 0
     8be:	ce 01       	movw	r24, r28
     8c0:	2e d0       	rcall	.+92     	; 0x91e <_ZN6EEProm11WriteWordEEEii>
     8c2:	fe 01       	movw	r30, r28
     8c4:	ea 52       	subi	r30, 0x2A	; 42
     8c6:	ff 4f       	sbci	r31, 0xFF	; 255
     8c8:	20 e0       	ldi	r18, 0x00	; 0
     8ca:	30 e0       	ldi	r19, 0x00	; 0
     8cc:	48 ec       	ldi	r20, 0xC8	; 200
     8ce:	52 e4       	ldi	r21, 0x42	; 66
     8d0:	60 81       	ld	r22, Z
     8d2:	71 81       	ldd	r23, Z+1	; 0x01
     8d4:	82 81       	ldd	r24, Z+2	; 0x02
     8d6:	93 81       	ldd	r25, Z+3	; 0x03
     8d8:	d9 d4       	rcall	.+2482   	; 0x128c <__mulsf3>
     8da:	f1 d3       	rcall	.+2018   	; 0x10be <__fixsfsi>
     8dc:	ab 01       	movw	r20, r22
     8de:	68 e6       	ldi	r22, 0x68	; 104
     8e0:	70 e0       	ldi	r23, 0x00	; 0
     8e2:	ce 01       	movw	r24, r28
     8e4:	1c d0       	rcall	.+56     	; 0x91e <_ZN6EEProm11WriteWordEEEii>
     8e6:	c7 55       	subi	r28, 0x57	; 87
     8e8:	df 4f       	sbci	r29, 0xFF	; 255
     8ea:	81 e0       	ldi	r24, 0x01	; 1
     8ec:	88 83       	st	Y, r24
     8ee:	df 91       	pop	r29
     8f0:	cf 91       	pop	r28
     8f2:	08 95       	ret

000008f4 <_ZN6EEProm11WriteByteEEEih>:
     8f4:	e1 99       	sbic	0x1c, 1	; 28
     8f6:	fe cf       	rjmp	.-4      	; 0x8f4 <_ZN6EEProm11WriteByteEEEih>
     8f8:	8f b7       	in	r24, 0x3f	; 63
     8fa:	f8 94       	cli
     8fc:	7f bb       	out	0x1f, r23	; 31
     8fe:	6e bb       	out	0x1e, r22	; 30
     900:	4d bb       	out	0x1d, r20	; 29
     902:	e2 9a       	sbi	0x1c, 2	; 28
     904:	e1 9a       	sbi	0x1c, 1	; 28
     906:	8f bf       	out	0x3f, r24	; 63
     908:	08 95       	ret

0000090a <_ZN6EEProm10ReadByteEEEi>:
     90a:	e1 99       	sbic	0x1c, 1	; 28
     90c:	fe cf       	rjmp	.-4      	; 0x90a <_ZN6EEProm10ReadByteEEEi>
     90e:	9f b7       	in	r25, 0x3f	; 63
     910:	f8 94       	cli
     912:	7f bb       	out	0x1f, r23	; 31
     914:	6e bb       	out	0x1e, r22	; 30
     916:	e0 9a       	sbi	0x1c, 0	; 28
     918:	8d b3       	in	r24, 0x1d	; 29
     91a:	9f bf       	out	0x3f, r25	; 63
     91c:	08 95       	ret

0000091e <_ZN6EEProm11WriteWordEEEii>:
     91e:	ff 92       	push	r15
     920:	0f 93       	push	r16
     922:	1f 93       	push	r17
     924:	cf 93       	push	r28
     926:	df 93       	push	r29
     928:	8c 01       	movw	r16, r24
     92a:	eb 01       	movw	r28, r22
     92c:	f4 2e       	mov	r15, r20
     92e:	45 2f       	mov	r20, r21
     930:	e1 df       	rcall	.-62     	; 0x8f4 <_ZN6EEProm11WriteByteEEEih>
     932:	be 01       	movw	r22, r28
     934:	6f 5f       	subi	r22, 0xFF	; 255
     936:	7f 4f       	sbci	r23, 0xFF	; 255
     938:	4f 2d       	mov	r20, r15
     93a:	c8 01       	movw	r24, r16
     93c:	df 91       	pop	r29
     93e:	cf 91       	pop	r28
     940:	1f 91       	pop	r17
     942:	0f 91       	pop	r16
     944:	ff 90       	pop	r15
     946:	d6 cf       	rjmp	.-84     	; 0x8f4 <_ZN6EEProm11WriteByteEEEih>

00000948 <_ZN6EEProm18EEProm_Set_DefaultEv>:
     948:	cf 93       	push	r28
     94a:	df 93       	push	r29
     94c:	ec 01       	movw	r28, r24
     94e:	40 e0       	ldi	r20, 0x00	; 0
     950:	52 e0       	ldi	r21, 0x02	; 2
     952:	64 e1       	ldi	r22, 0x14	; 20
     954:	70 e0       	ldi	r23, 0x00	; 0
     956:	e3 df       	rcall	.-58     	; 0x91e <_ZN6EEProm11WriteWordEEEii>
     958:	40 e0       	ldi	r20, 0x00	; 0
     95a:	52 e0       	ldi	r21, 0x02	; 2
     95c:	6a e1       	ldi	r22, 0x1A	; 26
     95e:	70 e0       	ldi	r23, 0x00	; 0
     960:	ce 01       	movw	r24, r28
     962:	dd df       	rcall	.-70     	; 0x91e <_ZN6EEProm11WriteWordEEEii>
     964:	40 e0       	ldi	r20, 0x00	; 0
     966:	52 e0       	ldi	r21, 0x02	; 2
     968:	66 e1       	ldi	r22, 0x16	; 22
     96a:	70 e0       	ldi	r23, 0x00	; 0
     96c:	ce 01       	movw	r24, r28
     96e:	d7 df       	rcall	.-82     	; 0x91e <_ZN6EEProm11WriteWordEEEii>
     970:	40 e0       	ldi	r20, 0x00	; 0
     972:	52 e0       	ldi	r21, 0x02	; 2
     974:	6c e1       	ldi	r22, 0x1C	; 28
     976:	70 e0       	ldi	r23, 0x00	; 0
     978:	ce 01       	movw	r24, r28
     97a:	df 91       	pop	r29
     97c:	cf 91       	pop	r28
     97e:	cf cf       	rjmp	.-98     	; 0x91e <_ZN6EEProm11WriteWordEEEii>

00000980 <_ZN6EEProm10ReadWordEEEi>:
     980:	ef 92       	push	r14
     982:	ff 92       	push	r15
     984:	0f 93       	push	r16
     986:	1f 93       	push	r17
     988:	cf 93       	push	r28
     98a:	7c 01       	movw	r14, r24
     98c:	8b 01       	movw	r16, r22
     98e:	bd df       	rcall	.-134    	; 0x90a <_ZN6EEProm10ReadByteEEEi>
     990:	c8 2f       	mov	r28, r24
     992:	b8 01       	movw	r22, r16
     994:	6f 5f       	subi	r22, 0xFF	; 255
     996:	7f 4f       	sbci	r23, 0xFF	; 255
     998:	c7 01       	movw	r24, r14
     99a:	b7 df       	rcall	.-146    	; 0x90a <_ZN6EEProm10ReadByteEEEi>
     99c:	2c 2f       	mov	r18, r28
     99e:	30 e0       	ldi	r19, 0x00	; 0
     9a0:	32 2f       	mov	r19, r18
     9a2:	22 27       	eor	r18, r18
     9a4:	a9 01       	movw	r20, r18
     9a6:	48 0f       	add	r20, r24
     9a8:	51 1d       	adc	r21, r1
     9aa:	ca 01       	movw	r24, r20
     9ac:	cf 91       	pop	r28
     9ae:	1f 91       	pop	r17
     9b0:	0f 91       	pop	r16
     9b2:	ff 90       	pop	r15
     9b4:	ef 90       	pop	r14
     9b6:	08 95       	ret

000009b8 <_ZN6EEProm11EEProm_InitEv>:
     9b8:	cf 93       	push	r28
     9ba:	df 93       	push	r29
     9bc:	ec 01       	movw	r28, r24
     9be:	60 e1       	ldi	r22, 0x10	; 16
     9c0:	70 e0       	ldi	r23, 0x00	; 0
     9c2:	de df       	rcall	.-68     	; 0x980 <_ZN6EEProm10ReadWordEEEi>
     9c4:	84 33       	cpi	r24, 0x34	; 52
     9c6:	92 41       	sbci	r25, 0x12	; 18
     9c8:	51 f0       	breq	.+20     	; 0x9de <_ZN6EEProm11EEProm_InitEv+0x26>
     9ca:	ce 01       	movw	r24, r28
     9cc:	bd df       	rcall	.-134    	; 0x948 <_ZN6EEProm18EEProm_Set_DefaultEv>
     9ce:	44 e3       	ldi	r20, 0x34	; 52
     9d0:	52 e1       	ldi	r21, 0x12	; 18
     9d2:	60 e1       	ldi	r22, 0x10	; 16
     9d4:	70 e0       	ldi	r23, 0x00	; 0
     9d6:	ce 01       	movw	r24, r28
     9d8:	df 91       	pop	r29
     9da:	cf 91       	pop	r28
     9dc:	a0 cf       	rjmp	.-192    	; 0x91e <_ZN6EEProm11WriteWordEEEii>
     9de:	df 91       	pop	r29
     9e0:	cf 91       	pop	r28
     9e2:	08 95       	ret

000009e4 <main>:
     9e4:	80 e6       	ldi	r24, 0x60	; 96
     9e6:	90 e0       	ldi	r25, 0x00	; 0
     9e8:	e0 db       	rcall	.-2112   	; 0x1aa <_ZN9Cond_Main9Cond_InitEv>
     9ea:	78 94       	sei
     9ec:	80 e6       	ldi	r24, 0x60	; 96
     9ee:	90 e0       	ldi	r25, 0x00	; 0
     9f0:	1c dc       	rcall	.-1992   	; 0x22a <_ZN9Cond_Main12Cond_ExecuteEv>
     9f2:	fc cf       	rjmp	.-8      	; 0x9ec <main+0x8>

000009f4 <_ZN10PCBA2017057IO_InitEv>:
     9f4:	1a ba       	out	0x1a, r1	; 26
     9f6:	88 e0       	ldi	r24, 0x08	; 8
     9f8:	8b bb       	out	0x1b, r24	; 27
     9fa:	87 bb       	out	0x17, r24	; 23
     9fc:	80 e2       	ldi	r24, 0x20	; 32
     9fe:	88 bb       	out	0x18, r24	; 24
     a00:	80 ee       	ldi	r24, 0xE0	; 224
     a02:	81 b9       	out	0x01, r24	; 1
     a04:	80 e1       	ldi	r24, 0x10	; 16
     a06:	82 b9       	out	0x02, r24	; 2
     a08:	08 95       	ret

00000a0a <_ZN10PCBA2017059Mplex_GetEv>:
     a0a:	86 b3       	in	r24, 0x16	; 22
     a0c:	86 fb       	bst	r24, 6
     a0e:	88 27       	eor	r24, r24
     a10:	80 f9       	bld	r24, 0
     a12:	91 e0       	ldi	r25, 0x01	; 1
     a14:	89 27       	eor	r24, r25
     a16:	08 95       	ret

00000a18 <_ZN10PCBA20170510JUMPER_GetEi>:
     a18:	81 30       	cpi	r24, 0x01	; 1
     a1a:	91 05       	cpc	r25, r1
     a1c:	39 f0       	breq	.+14     	; 0xa2c <_ZN10PCBA20170510JUMPER_GetEi+0x14>
     a1e:	02 97       	sbiw	r24, 0x02	; 2
     a20:	61 f4       	brne	.+24     	; 0xa3a <_ZN10PCBA20170510JUMPER_GetEi+0x22>
     a22:	89 b3       	in	r24, 0x19	; 25
     a24:	83 fb       	bst	r24, 3
     a26:	88 27       	eor	r24, r24
     a28:	80 f9       	bld	r24, 0
     a2a:	04 c0       	rjmp	.+8      	; 0xa34 <_ZN10PCBA20170510JUMPER_GetEi+0x1c>
     a2c:	86 b3       	in	r24, 0x16	; 22
     a2e:	85 fb       	bst	r24, 5
     a30:	88 27       	eor	r24, r24
     a32:	80 f9       	bld	r24, 0
     a34:	91 e0       	ldi	r25, 0x01	; 1
     a36:	89 27       	eor	r24, r25
     a38:	08 95       	ret
     a3a:	80 e0       	ldi	r24, 0x00	; 0
     a3c:	08 95       	ret

00000a3e <_ZN10PCBA2017059Freq_InitEv>:
     a3e:	85 b7       	in	r24, 0x35	; 53
     a40:	82 60       	ori	r24, 0x02	; 2
     a42:	85 bf       	out	0x35, r24	; 53
     a44:	8b b7       	in	r24, 0x3b	; 59
     a46:	80 62       	ori	r24, 0x20	; 32
     a48:	8b bf       	out	0x3b, r24	; 59
     a4a:	87 e1       	ldi	r24, 0x17	; 23
     a4c:	83 bd       	out	0x23, r24	; 35
     a4e:	12 bc       	out	0x22, r1	; 34
     a50:	10 92 7c 01 	sts	0x017C, r1	; 0x80017c <_ZN10PCBA2017059Cond1FcntE>
     a54:	10 92 7d 01 	sts	0x017D, r1	; 0x80017d <_ZN10PCBA2017059Cond1FcntE+0x1>
     a58:	10 92 7e 01 	sts	0x017E, r1	; 0x80017e <_ZN10PCBA2017059Cond1FcntE+0x2>
     a5c:	10 92 7f 01 	sts	0x017F, r1	; 0x80017f <_ZN10PCBA2017059Cond1FcntE+0x3>
     a60:	10 92 78 01 	sts	0x0178, r1	; 0x800178 <_ZN10PCBA2017059Cond2FcntE>
     a64:	10 92 79 01 	sts	0x0179, r1	; 0x800179 <_ZN10PCBA2017059Cond2FcntE+0x1>
     a68:	10 92 7a 01 	sts	0x017A, r1	; 0x80017a <_ZN10PCBA2017059Cond2FcntE+0x2>
     a6c:	10 92 7b 01 	sts	0x017B, r1	; 0x80017b <_ZN10PCBA2017059Cond2FcntE+0x3>
     a70:	10 92 74 01 	sts	0x0174, r1	; 0x800174 <_ZN10PCBA2017056Cond1FE>
     a74:	10 92 75 01 	sts	0x0175, r1	; 0x800175 <_ZN10PCBA2017056Cond1FE+0x1>
     a78:	10 92 76 01 	sts	0x0176, r1	; 0x800176 <_ZN10PCBA2017056Cond1FE+0x2>
     a7c:	10 92 77 01 	sts	0x0177, r1	; 0x800177 <_ZN10PCBA2017056Cond1FE+0x3>
     a80:	10 92 70 01 	sts	0x0170, r1	; 0x800170 <_ZN10PCBA2017056Cond2FE>
     a84:	10 92 71 01 	sts	0x0171, r1	; 0x800171 <_ZN10PCBA2017056Cond2FE+0x1>
     a88:	10 92 72 01 	sts	0x0172, r1	; 0x800172 <_ZN10PCBA2017056Cond2FE+0x2>
     a8c:	10 92 73 01 	sts	0x0173, r1	; 0x800173 <_ZN10PCBA2017056Cond2FE+0x3>
     a90:	10 92 6c 01 	sts	0x016C, r1	; 0x80016c <_ZN10PCBA2017059Temp1FcntE>
     a94:	10 92 6d 01 	sts	0x016D, r1	; 0x80016d <_ZN10PCBA2017059Temp1FcntE+0x1>
     a98:	10 92 6e 01 	sts	0x016E, r1	; 0x80016e <_ZN10PCBA2017059Temp1FcntE+0x2>
     a9c:	10 92 6f 01 	sts	0x016F, r1	; 0x80016f <_ZN10PCBA2017059Temp1FcntE+0x3>
     aa0:	10 92 68 01 	sts	0x0168, r1	; 0x800168 <_ZN10PCBA2017059Temp2FcntE>
     aa4:	10 92 69 01 	sts	0x0169, r1	; 0x800169 <_ZN10PCBA2017059Temp2FcntE+0x1>
     aa8:	10 92 6a 01 	sts	0x016A, r1	; 0x80016a <_ZN10PCBA2017059Temp2FcntE+0x2>
     aac:	10 92 6b 01 	sts	0x016B, r1	; 0x80016b <_ZN10PCBA2017059Temp2FcntE+0x3>
     ab0:	10 92 64 01 	sts	0x0164, r1	; 0x800164 <_ZN10PCBA2017056Temp1FE>
     ab4:	10 92 65 01 	sts	0x0165, r1	; 0x800165 <_ZN10PCBA2017056Temp1FE+0x1>
     ab8:	10 92 66 01 	sts	0x0166, r1	; 0x800166 <_ZN10PCBA2017056Temp1FE+0x2>
     abc:	10 92 67 01 	sts	0x0167, r1	; 0x800167 <_ZN10PCBA2017056Temp1FE+0x3>
     ac0:	10 92 60 01 	sts	0x0160, r1	; 0x800160 <_ZN10PCBA2017056Temp2FE>
     ac4:	10 92 61 01 	sts	0x0161, r1	; 0x800161 <_ZN10PCBA2017056Temp2FE+0x1>
     ac8:	10 92 62 01 	sts	0x0162, r1	; 0x800162 <_ZN10PCBA2017056Temp2FE+0x2>
     acc:	10 92 63 01 	sts	0x0163, r1	; 0x800163 <_ZN10PCBA2017056Temp2FE+0x3>
     ad0:	89 b3       	in	r24, 0x19	; 25
     ad2:	90 e0       	ldi	r25, 0x00	; 0
     ad4:	90 93 5f 01 	sts	0x015F, r25	; 0x80015f <_ZN10PCBA2017057PA_lastE+0x1>
     ad8:	80 93 5e 01 	sts	0x015E, r24	; 0x80015e <_ZN10PCBA2017057PA_lastE>
     adc:	08 95       	ret

00000ade <_ZN10PCBA20170514Cond_Read_FreqEi>:
     ade:	81 30       	cpi	r24, 0x01	; 1
     ae0:	91 05       	cpc	r25, r1
     ae2:	59 f0       	breq	.+22     	; 0xafa <_ZN10PCBA20170514Cond_Read_FreqEi+0x1c>
     ae4:	02 97       	sbiw	r24, 0x02	; 2
     ae6:	49 f4       	brne	.+18     	; 0xafa <_ZN10PCBA20170514Cond_Read_FreqEi+0x1c>
     ae8:	60 91 70 01 	lds	r22, 0x0170	; 0x800170 <_ZN10PCBA2017056Cond2FE>
     aec:	70 91 71 01 	lds	r23, 0x0171	; 0x800171 <_ZN10PCBA2017056Cond2FE+0x1>
     af0:	80 91 72 01 	lds	r24, 0x0172	; 0x800172 <_ZN10PCBA2017056Cond2FE+0x2>
     af4:	90 91 73 01 	lds	r25, 0x0173	; 0x800173 <_ZN10PCBA2017056Cond2FE+0x3>
     af8:	08 95       	ret
     afa:	60 91 74 01 	lds	r22, 0x0174	; 0x800174 <_ZN10PCBA2017056Cond1FE>
     afe:	70 91 75 01 	lds	r23, 0x0175	; 0x800175 <_ZN10PCBA2017056Cond1FE+0x1>
     b02:	80 91 76 01 	lds	r24, 0x0176	; 0x800176 <_ZN10PCBA2017056Cond1FE+0x2>
     b06:	90 91 77 01 	lds	r25, 0x0177	; 0x800177 <_ZN10PCBA2017056Cond1FE+0x3>
     b0a:	08 95       	ret

00000b0c <_ZN10PCBA20170514Temp_Read_FreqEi>:
     b0c:	81 30       	cpi	r24, 0x01	; 1
     b0e:	91 05       	cpc	r25, r1
     b10:	59 f0       	breq	.+22     	; 0xb28 <_ZN10PCBA20170514Temp_Read_FreqEi+0x1c>
     b12:	02 97       	sbiw	r24, 0x02	; 2
     b14:	49 f4       	brne	.+18     	; 0xb28 <_ZN10PCBA20170514Temp_Read_FreqEi+0x1c>
     b16:	60 91 60 01 	lds	r22, 0x0160	; 0x800160 <_ZN10PCBA2017056Temp2FE>
     b1a:	70 91 61 01 	lds	r23, 0x0161	; 0x800161 <_ZN10PCBA2017056Temp2FE+0x1>
     b1e:	80 91 62 01 	lds	r24, 0x0162	; 0x800162 <_ZN10PCBA2017056Temp2FE+0x2>
     b22:	90 91 63 01 	lds	r25, 0x0163	; 0x800163 <_ZN10PCBA2017056Temp2FE+0x3>
     b26:	08 95       	ret
     b28:	60 91 64 01 	lds	r22, 0x0164	; 0x800164 <_ZN10PCBA2017056Temp1FE>
     b2c:	70 91 65 01 	lds	r23, 0x0165	; 0x800165 <_ZN10PCBA2017056Temp1FE+0x1>
     b30:	80 91 66 01 	lds	r24, 0x0166	; 0x800166 <_ZN10PCBA2017056Temp1FE+0x2>
     b34:	90 91 67 01 	lds	r25, 0x0167	; 0x800167 <_ZN10PCBA2017056Temp1FE+0x3>
     b38:	08 95       	ret

00000b3a <_ZN10PCBA2017058ADC_InitEv>:
     b3a:	87 e0       	ldi	r24, 0x07	; 7
     b3c:	86 b9       	out	0x06, r24	; 6
     b3e:	16 be       	out	0x36, r1	; 54
     b40:	13 b8       	out	0x03, r1	; 3
     b42:	86 b1       	in	r24, 0x06	; 6
     b44:	87 68       	ori	r24, 0x87	; 135
     b46:	86 b9       	out	0x06, r24	; 6
     b48:	08 95       	ret

00000b4a <_ZN10PCBA2017059ADC_StartEib>:
     b4a:	36 99       	sbic	0x06, 6	; 6
     b4c:	fe cf       	rjmp	.-4      	; 0xb4a <_ZN10PCBA2017059ADC_StartEib>
     b4e:	13 b8       	out	0x03, r1	; 3
     b50:	87 70       	andi	r24, 0x07	; 7
     b52:	87 b9       	out	0x07, r24	; 7
     b54:	86 b1       	in	r24, 0x06	; 6
     b56:	80 6c       	ori	r24, 0xC0	; 192
     b58:	86 b9       	out	0x06, r24	; 6
     b5a:	08 95       	ret

00000b5c <_ZN10PCBA2017058ADC_DoneEv>:
     b5c:	86 b1       	in	r24, 0x06	; 6
     b5e:	86 fb       	bst	r24, 6
     b60:	88 27       	eor	r24, r24
     b62:	80 f9       	bld	r24, 0
     b64:	91 e0       	ldi	r25, 0x01	; 1
     b66:	89 27       	eor	r24, r25
     b68:	08 95       	ret

00000b6a <_ZN10PCBA2017058ADC_ReadEv>:
     b6a:	36 99       	sbic	0x06, 6	; 6
     b6c:	fe cf       	rjmp	.-4      	; 0xb6a <_ZN10PCBA2017058ADC_ReadEv>
     b6e:	84 b1       	in	r24, 0x04	; 4
     b70:	25 b1       	in	r18, 0x05	; 5
     b72:	90 e0       	ldi	r25, 0x00	; 0
     b74:	92 2b       	or	r25, r18
     b76:	93 70       	andi	r25, 0x03	; 3
     b78:	08 95       	ret

00000b7a <_ZN10PCBA20170511CalPot_ReadEi>:
     b7a:	61 e0       	ldi	r22, 0x01	; 1
     b7c:	e6 df       	rcall	.-52     	; 0xb4a <_ZN10PCBA2017059ADC_StartEib>
     b7e:	ee df       	rcall	.-36     	; 0xb5c <_ZN10PCBA2017058ADC_DoneEv>
     b80:	88 23       	and	r24, r24
     b82:	e9 f3       	breq	.-6      	; 0xb7e <_ZN10PCBA20170511CalPot_ReadEi+0x4>
     b84:	f2 cf       	rjmp	.-28     	; 0xb6a <_ZN10PCBA2017058ADC_ReadEv>

00000b86 <_ZN10PCBA2017058PWM_InitEv>:
     b86:	82 e0       	ldi	r24, 0x02	; 2
     b88:	89 bd       	out	0x29, r24	; 41
     b8a:	2f e7       	ldi	r18, 0x7F	; 127
     b8c:	89 ea       	ldi	r24, 0xA9	; 169
     b8e:	93 e0       	ldi	r25, 0x03	; 3
     b90:	21 50       	subi	r18, 0x01	; 1
     b92:	80 40       	sbci	r24, 0x00	; 0
     b94:	90 40       	sbci	r25, 0x00	; 0
     b96:	e1 f7       	brne	.-8      	; 0xb90 <_ZN10PCBA2017058PWM_InitEv+0xa>
     b98:	00 c0       	rjmp	.+0      	; 0xb9a <_ZN10PCBA2017058PWM_InitEv+0x14>
     b9a:	00 00       	nop
     b9c:	09 b4       	in	r0, 0x29	; 41
     b9e:	00 fe       	sbrs	r0, 0
     ba0:	fd cf       	rjmp	.-6      	; 0xb9c <_ZN10PCBA2017058PWM_InitEv+0x16>
     ba2:	86 e0       	ldi	r24, 0x06	; 6
     ba4:	89 bd       	out	0x29, r24	; 41
     ba6:	81 e3       	ldi	r24, 0x31	; 49
     ba8:	80 bf       	out	0x30, r24	; 48
     baa:	81 e0       	ldi	r24, 0x01	; 1
     bac:	8f bd       	out	0x2f, r24	; 47
     bae:	86 bd       	out	0x26, r24	; 38
     bb0:	84 e0       	ldi	r24, 0x04	; 4
     bb2:	80 b9       	out	0x00, r24	; 0
     bb4:	83 e0       	ldi	r24, 0x03	; 3
     bb6:	85 bd       	out	0x25, r24	; 37
     bb8:	8f ef       	ldi	r24, 0xFF	; 255
     bba:	8b bd       	out	0x2b, r24	; 43
     bbc:	8f e7       	ldi	r24, 0x7F	; 127
     bbe:	8e bd       	out	0x2e, r24	; 46
     bc0:	08 95       	ret

00000bc2 <_ZN10PCBA2017057PWM_SetEi>:
     bc2:	80 95       	com	r24
     bc4:	90 95       	com	r25
     bc6:	93 70       	andi	r25, 0x03	; 3
     bc8:	95 bd       	out	0x25, r25	; 37
     bca:	8c bd       	out	0x2c, r24	; 44
     bcc:	08 95       	ret

00000bce <_ZN10PCBA2017057PWM_SetEd>:
     bce:	2d ec       	ldi	r18, 0xCD	; 205
     bd0:	3c ec       	ldi	r19, 0xCC	; 204
     bd2:	4c ec       	ldi	r20, 0xCC	; 204
     bd4:	53 e4       	ldi	r21, 0x43	; 67
     bd6:	5a d3       	rcall	.+1716   	; 0x128c <__mulsf3>
     bd8:	72 d2       	rcall	.+1252   	; 0x10be <__fixsfsi>
     bda:	dc 01       	movw	r26, r24
     bdc:	cb 01       	movw	r24, r22
     bde:	40 e0       	ldi	r20, 0x00	; 0
     be0:	50 e0       	ldi	r21, 0x00	; 0
     be2:	6f ef       	ldi	r22, 0xFF	; 255
     be4:	73 e0       	ldi	r23, 0x03	; 3
     be6:	5f d1       	rcall	.+702    	; 0xea6 <_ZN4Util7BracketEiii>
     be8:	ec cf       	rjmp	.-40     	; 0xbc2 <_ZN10PCBA2017057PWM_SetEi>

00000bea <_ZN10PCBA20170514WatchDog_TouchEv>:
     bea:	a8 95       	wdr
     bec:	08 95       	ret

00000bee <_ZN10PCBA20170512WatchDog_OffEv>:
     bee:	84 b7       	in	r24, 0x34	; 52
     bf0:	88 70       	andi	r24, 0x08	; 8
     bf2:	84 bf       	out	0x34, r24	; 52
     bf4:	14 be       	out	0x34, r1	; 52
     bf6:	81 b5       	in	r24, 0x21	; 33
     bf8:	88 61       	ori	r24, 0x18	; 24
     bfa:	81 bd       	out	0x21, r24	; 33
     bfc:	11 bc       	out	0x21, r1	; 33
     bfe:	08 95       	ret

00000c00 <_ZN10PCBA20170513WatchDog_InitEv>:
     c00:	f6 cf       	rjmp	.-20     	; 0xbee <_ZN10PCBA20170512WatchDog_OffEv>

00000c02 <_ZN10PCBA2017056RebootEv>:
     c02:	e0 e0       	ldi	r30, 0x00	; 0
     c04:	f0 e0       	ldi	r31, 0x00	; 0
     c06:	09 94       	ijmp

00000c08 <__vector_12>:
     c08:	1f 92       	push	r1
     c0a:	0f 92       	push	r0
     c0c:	0f b6       	in	r0, 0x3f	; 63
     c0e:	0f 92       	push	r0
     c10:	11 24       	eor	r1, r1
     c12:	2f 93       	push	r18
     c14:	3f 93       	push	r19
     c16:	4f 93       	push	r20
     c18:	5f 93       	push	r21
     c1a:	6f 93       	push	r22
     c1c:	7f 93       	push	r23
     c1e:	8f 93       	push	r24
     c20:	9f 93       	push	r25
     c22:	af 93       	push	r26
     c24:	bf 93       	push	r27
     c26:	ef 93       	push	r30
     c28:	ff 93       	push	r31
     c2a:	e1 df       	rcall	.-62     	; 0xbee <_ZN10PCBA20170512WatchDog_OffEv>
     c2c:	ea df       	rcall	.-44     	; 0xc02 <_ZN10PCBA2017056RebootEv>
     c2e:	ff 91       	pop	r31
     c30:	ef 91       	pop	r30
     c32:	bf 91       	pop	r27
     c34:	af 91       	pop	r26
     c36:	9f 91       	pop	r25
     c38:	8f 91       	pop	r24
     c3a:	7f 91       	pop	r23
     c3c:	6f 91       	pop	r22
     c3e:	5f 91       	pop	r21
     c40:	4f 91       	pop	r20
     c42:	3f 91       	pop	r19
     c44:	2f 91       	pop	r18
     c46:	0f 90       	pop	r0
     c48:	0f be       	out	0x3f, r0	; 63
     c4a:	0f 90       	pop	r0
     c4c:	1f 90       	pop	r1
     c4e:	18 95       	reti

00000c50 <_ZN10PCBA20170514Get_Timer_FlagEv>:
     c50:	80 91 80 01 	lds	r24, 0x0180	; 0x800180 <_ZL10Timer_Flag>
     c54:	81 11       	cpse	r24, r1
     c56:	10 92 80 01 	sts	0x0180, r1	; 0x800180 <_ZL10Timer_Flag>
     c5a:	08 95       	ret

00000c5c <_ZN10PCBA20170510Timer_InitEv>:
     c5c:	f8 94       	cli
     c5e:	15 ba       	out	0x15, r1	; 21
     c60:	85 e0       	ldi	r24, 0x05	; 5
     c62:	83 bf       	out	0x33, r24	; 51
     c64:	89 b7       	in	r24, 0x39	; 57
     c66:	82 60       	ori	r24, 0x02	; 2
     c68:	89 bf       	out	0x39, r24	; 57
     c6a:	14 ba       	out	0x14, r1	; 20
     c6c:	81 ef       	ldi	r24, 0xF1	; 241
     c6e:	82 bf       	out	0x32, r24	; 50
     c70:	10 92 80 01 	sts	0x0180, r1	; 0x800180 <_ZL10Timer_Flag>
     c74:	84 ef       	ldi	r24, 0xF4	; 244
     c76:	91 e0       	ldi	r25, 0x01	; 1
     c78:	90 93 82 01 	sts	0x0182, r25	; 0x800182 <_ZL14OneSecondTimer+0x1>
     c7c:	80 93 81 01 	sts	0x0181, r24	; 0x800181 <_ZL14OneSecondTimer>
     c80:	08 95       	ret

00000c82 <__vector_6>:
     c82:	1f 92       	push	r1
     c84:	0f 92       	push	r0
     c86:	0f b6       	in	r0, 0x3f	; 63
     c88:	0f 92       	push	r0
     c8a:	11 24       	eor	r1, r1
     c8c:	8f 93       	push	r24
     c8e:	9f 93       	push	r25
     c90:	14 ba       	out	0x14, r1	; 20
     c92:	81 ef       	ldi	r24, 0xF1	; 241
     c94:	82 bf       	out	0x32, r24	; 50
     c96:	80 91 81 01 	lds	r24, 0x0181	; 0x800181 <_ZL14OneSecondTimer>
     c9a:	90 91 82 01 	lds	r25, 0x0182	; 0x800182 <_ZL14OneSecondTimer+0x1>
     c9e:	01 97       	sbiw	r24, 0x01	; 1
     ca0:	29 f0       	breq	.+10     	; 0xcac <__vector_6+0x2a>
     ca2:	90 93 82 01 	sts	0x0182, r25	; 0x800182 <_ZL14OneSecondTimer+0x1>
     ca6:	80 93 81 01 	sts	0x0181, r24	; 0x800181 <_ZL14OneSecondTimer>
     caa:	09 c0       	rjmp	.+18     	; 0xcbe <__vector_6+0x3c>
     cac:	84 ef       	ldi	r24, 0xF4	; 244
     cae:	91 e0       	ldi	r25, 0x01	; 1
     cb0:	90 93 82 01 	sts	0x0182, r25	; 0x800182 <_ZL14OneSecondTimer+0x1>
     cb4:	80 93 81 01 	sts	0x0181, r24	; 0x800181 <_ZL14OneSecondTimer>
     cb8:	81 e0       	ldi	r24, 0x01	; 1
     cba:	80 93 80 01 	sts	0x0180, r24	; 0x800180 <_ZL10Timer_Flag>
     cbe:	80 91 81 01 	lds	r24, 0x0181	; 0x800181 <_ZL14OneSecondTimer>
     cc2:	90 91 82 01 	lds	r25, 0x0182	; 0x800182 <_ZL14OneSecondTimer+0x1>
     cc6:	97 ff       	sbrs	r25, 7
     cc8:	06 c0       	rjmp	.+12     	; 0xcd6 <__vector_6+0x54>
     cca:	84 ef       	ldi	r24, 0xF4	; 244
     ccc:	91 e0       	ldi	r25, 0x01	; 1
     cce:	90 93 82 01 	sts	0x0182, r25	; 0x800182 <_ZL14OneSecondTimer+0x1>
     cd2:	80 93 81 01 	sts	0x0181, r24	; 0x800181 <_ZL14OneSecondTimer>
     cd6:	9f 91       	pop	r25
     cd8:	8f 91       	pop	r24
     cda:	0f 90       	pop	r0
     cdc:	0f be       	out	0x3f, r0	; 63
     cde:	0f 90       	pop	r0
     ce0:	1f 90       	pop	r1
     ce2:	18 95       	reti

00000ce4 <__vector_2>:
     ce4:	1f 92       	push	r1
     ce6:	0f 92       	push	r0
     ce8:	0f b6       	in	r0, 0x3f	; 63
     cea:	0f 92       	push	r0
     cec:	11 24       	eor	r1, r1
     cee:	2f 93       	push	r18
     cf0:	4f 93       	push	r20
     cf2:	5f 93       	push	r21
     cf4:	6f 93       	push	r22
     cf6:	7f 93       	push	r23
     cf8:	8f 93       	push	r24
     cfa:	9f 93       	push	r25
     cfc:	af 93       	push	r26
     cfe:	bf 93       	push	r27
     d00:	89 b3       	in	r24, 0x19	; 25
     d02:	89 b3       	in	r24, 0x19	; 25
     d04:	29 b3       	in	r18, 0x19	; 25
     d06:	42 2f       	mov	r20, r18
     d08:	50 e0       	ldi	r21, 0x00	; 0
     d0a:	80 91 5e 01 	lds	r24, 0x015E	; 0x80015e <_ZN10PCBA2017057PA_lastE>
     d0e:	90 91 5f 01 	lds	r25, 0x015F	; 0x80015f <_ZN10PCBA2017057PA_lastE+0x1>
     d12:	84 27       	eor	r24, r20
     d14:	95 27       	eor	r25, r21
     d16:	50 93 5f 01 	sts	0x015F, r21	; 0x80015f <_ZN10PCBA2017057PA_lastE+0x1>
     d1a:	40 93 5e 01 	sts	0x015E, r20	; 0x80015e <_ZN10PCBA2017057PA_lastE>
     d1e:	80 ff       	sbrs	r24, 0
     d20:	16 c0       	rjmp	.+44     	; 0xd4e <__vector_2+0x6a>
     d22:	20 ff       	sbrs	r18, 0
     d24:	14 c0       	rjmp	.+40     	; 0xd4e <__vector_2+0x6a>
     d26:	40 91 7c 01 	lds	r20, 0x017C	; 0x80017c <_ZN10PCBA2017059Cond1FcntE>
     d2a:	50 91 7d 01 	lds	r21, 0x017D	; 0x80017d <_ZN10PCBA2017059Cond1FcntE+0x1>
     d2e:	60 91 7e 01 	lds	r22, 0x017E	; 0x80017e <_ZN10PCBA2017059Cond1FcntE+0x2>
     d32:	70 91 7f 01 	lds	r23, 0x017F	; 0x80017f <_ZN10PCBA2017059Cond1FcntE+0x3>
     d36:	4f 5f       	subi	r20, 0xFF	; 255
     d38:	5f 4f       	sbci	r21, 0xFF	; 255
     d3a:	6f 4f       	sbci	r22, 0xFF	; 255
     d3c:	7f 4f       	sbci	r23, 0xFF	; 255
     d3e:	40 93 7c 01 	sts	0x017C, r20	; 0x80017c <_ZN10PCBA2017059Cond1FcntE>
     d42:	50 93 7d 01 	sts	0x017D, r21	; 0x80017d <_ZN10PCBA2017059Cond1FcntE+0x1>
     d46:	60 93 7e 01 	sts	0x017E, r22	; 0x80017e <_ZN10PCBA2017059Cond1FcntE+0x2>
     d4a:	70 93 7f 01 	sts	0x017F, r23	; 0x80017f <_ZN10PCBA2017059Cond1FcntE+0x3>
     d4e:	82 ff       	sbrs	r24, 2
     d50:	16 c0       	rjmp	.+44     	; 0xd7e <__vector_2+0x9a>
     d52:	22 ff       	sbrs	r18, 2
     d54:	14 c0       	rjmp	.+40     	; 0xd7e <__vector_2+0x9a>
     d56:	40 91 78 01 	lds	r20, 0x0178	; 0x800178 <_ZN10PCBA2017059Cond2FcntE>
     d5a:	50 91 79 01 	lds	r21, 0x0179	; 0x800179 <_ZN10PCBA2017059Cond2FcntE+0x1>
     d5e:	60 91 7a 01 	lds	r22, 0x017A	; 0x80017a <_ZN10PCBA2017059Cond2FcntE+0x2>
     d62:	70 91 7b 01 	lds	r23, 0x017B	; 0x80017b <_ZN10PCBA2017059Cond2FcntE+0x3>
     d66:	4f 5f       	subi	r20, 0xFF	; 255
     d68:	5f 4f       	sbci	r21, 0xFF	; 255
     d6a:	6f 4f       	sbci	r22, 0xFF	; 255
     d6c:	7f 4f       	sbci	r23, 0xFF	; 255
     d6e:	40 93 78 01 	sts	0x0178, r20	; 0x800178 <_ZN10PCBA2017059Cond2FcntE>
     d72:	50 93 79 01 	sts	0x0179, r21	; 0x800179 <_ZN10PCBA2017059Cond2FcntE+0x1>
     d76:	60 93 7a 01 	sts	0x017A, r22	; 0x80017a <_ZN10PCBA2017059Cond2FcntE+0x2>
     d7a:	70 93 7b 01 	sts	0x017B, r23	; 0x80017b <_ZN10PCBA2017059Cond2FcntE+0x3>
     d7e:	81 ff       	sbrs	r24, 1
     d80:	16 c0       	rjmp	.+44     	; 0xdae <__vector_2+0xca>
     d82:	21 ff       	sbrs	r18, 1
     d84:	14 c0       	rjmp	.+40     	; 0xdae <__vector_2+0xca>
     d86:	40 91 6c 01 	lds	r20, 0x016C	; 0x80016c <_ZN10PCBA2017059Temp1FcntE>
     d8a:	50 91 6d 01 	lds	r21, 0x016D	; 0x80016d <_ZN10PCBA2017059Temp1FcntE+0x1>
     d8e:	60 91 6e 01 	lds	r22, 0x016E	; 0x80016e <_ZN10PCBA2017059Temp1FcntE+0x2>
     d92:	70 91 6f 01 	lds	r23, 0x016F	; 0x80016f <_ZN10PCBA2017059Temp1FcntE+0x3>
     d96:	4f 5f       	subi	r20, 0xFF	; 255
     d98:	5f 4f       	sbci	r21, 0xFF	; 255
     d9a:	6f 4f       	sbci	r22, 0xFF	; 255
     d9c:	7f 4f       	sbci	r23, 0xFF	; 255
     d9e:	40 93 6c 01 	sts	0x016C, r20	; 0x80016c <_ZN10PCBA2017059Temp1FcntE>
     da2:	50 93 6d 01 	sts	0x016D, r21	; 0x80016d <_ZN10PCBA2017059Temp1FcntE+0x1>
     da6:	60 93 6e 01 	sts	0x016E, r22	; 0x80016e <_ZN10PCBA2017059Temp1FcntE+0x2>
     daa:	70 93 6f 01 	sts	0x016F, r23	; 0x80016f <_ZN10PCBA2017059Temp1FcntE+0x3>
     dae:	84 ff       	sbrs	r24, 4
     db0:	15 c0       	rjmp	.+42     	; 0xddc <__vector_2+0xf8>
     db2:	24 ff       	sbrs	r18, 4
     db4:	13 c0       	rjmp	.+38     	; 0xddc <__vector_2+0xf8>
     db6:	80 91 68 01 	lds	r24, 0x0168	; 0x800168 <_ZN10PCBA2017059Temp2FcntE>
     dba:	90 91 69 01 	lds	r25, 0x0169	; 0x800169 <_ZN10PCBA2017059Temp2FcntE+0x1>
     dbe:	a0 91 6a 01 	lds	r26, 0x016A	; 0x80016a <_ZN10PCBA2017059Temp2FcntE+0x2>
     dc2:	b0 91 6b 01 	lds	r27, 0x016B	; 0x80016b <_ZN10PCBA2017059Temp2FcntE+0x3>
     dc6:	01 96       	adiw	r24, 0x01	; 1
     dc8:	a1 1d       	adc	r26, r1
     dca:	b1 1d       	adc	r27, r1
     dcc:	80 93 68 01 	sts	0x0168, r24	; 0x800168 <_ZN10PCBA2017059Temp2FcntE>
     dd0:	90 93 69 01 	sts	0x0169, r25	; 0x800169 <_ZN10PCBA2017059Temp2FcntE+0x1>
     dd4:	a0 93 6a 01 	sts	0x016A, r26	; 0x80016a <_ZN10PCBA2017059Temp2FcntE+0x2>
     dd8:	b0 93 6b 01 	sts	0x016B, r27	; 0x80016b <_ZN10PCBA2017059Temp2FcntE+0x3>
     ddc:	bf 91       	pop	r27
     dde:	af 91       	pop	r26
     de0:	9f 91       	pop	r25
     de2:	8f 91       	pop	r24
     de4:	7f 91       	pop	r23
     de6:	6f 91       	pop	r22
     de8:	5f 91       	pop	r21
     dea:	4f 91       	pop	r20
     dec:	2f 91       	pop	r18
     dee:	0f 90       	pop	r0
     df0:	0f be       	out	0x3f, r0	; 63
     df2:	0f 90       	pop	r0
     df4:	1f 90       	pop	r1
     df6:	18 95       	reti

00000df8 <_ZN11Temperature24Temp_Compensation_FactorEd>:
     df8:	ef 92       	push	r14
     dfa:	ff 92       	push	r15
     dfc:	0f 93       	push	r16
     dfe:	1f 93       	push	r17
     e00:	cb 01       	movw	r24, r22
     e02:	ba 01       	movw	r22, r20
     e04:	20 e0       	ldi	r18, 0x00	; 0
     e06:	30 e0       	ldi	r19, 0x00	; 0
     e08:	48 ec       	ldi	r20, 0xC8	; 200
     e0a:	51 e4       	ldi	r21, 0x41	; 65
     e0c:	87 d0       	rcall	.+270    	; 0xf1c <__subsf3>
     e0e:	2e ea       	ldi	r18, 0xAE	; 174
     e10:	37 e4       	ldi	r19, 0x47	; 71
     e12:	41 e6       	ldi	r20, 0x61	; 97
     e14:	5d e3       	ldi	r21, 0x3D	; 61
     e16:	3a d2       	rcall	.+1140   	; 0x128c <__mulsf3>
     e18:	20 e0       	ldi	r18, 0x00	; 0
     e1a:	30 e0       	ldi	r19, 0x00	; 0
     e1c:	40 e8       	ldi	r20, 0x80	; 128
     e1e:	5f e3       	ldi	r21, 0x3F	; 63
     e20:	7e d0       	rcall	.+252    	; 0xf1e <__addsf3>
     e22:	1a e5       	ldi	r17, 0x5A	; 90
     e24:	e1 2e       	mov	r14, r17
     e26:	14 e6       	ldi	r17, 0x64	; 100
     e28:	f1 2e       	mov	r15, r17
     e2a:	0b e3       	ldi	r16, 0x3B	; 59
     e2c:	1e e3       	ldi	r17, 0x3E	; 62
     e2e:	20 e0       	ldi	r18, 0x00	; 0
     e30:	30 e0       	ldi	r19, 0x00	; 0
     e32:	40 ee       	ldi	r20, 0xE0	; 224
     e34:	5f e3       	ldi	r21, 0x3F	; 63
     e36:	41 d0       	rcall	.+130    	; 0xeba <_ZN4Util7BracketEddd>
     e38:	1f 91       	pop	r17
     e3a:	0f 91       	pop	r16
     e3c:	ff 90       	pop	r15
     e3e:	ef 90       	pop	r14
     e40:	08 95       	ret

00000e42 <_ZN11Temperature12Get_Temp_RawEd>:
     e42:	cb 01       	movw	r24, r22
     e44:	ba 01       	movw	r22, r20
     e46:	20 ed       	ldi	r18, 0xD0	; 208
     e48:	34 e4       	ldi	r19, 0x44	; 68
     e4a:	48 e5       	ldi	r20, 0x58	; 88
     e4c:	5d e3       	ldi	r21, 0x3D	; 61
     e4e:	1e d2       	rcall	.+1084   	; 0x128c <__mulsf3>
     e50:	28 e8       	ldi	r18, 0x88	; 136
     e52:	35 e8       	ldi	r19, 0x85	; 133
     e54:	4a eb       	ldi	r20, 0xBA	; 186
     e56:	5f e3       	ldi	r21, 0x3F	; 63
     e58:	61 d0       	rcall	.+194    	; 0xf1c <__subsf3>
     e5a:	08 95       	ret

00000e5c <_ZN11Temperature10Temp_VoltsEd>:
     e5c:	cb 01       	movw	r24, r22
     e5e:	ba 01       	movw	r22, r20
     e60:	20 e0       	ldi	r18, 0x00	; 0
     e62:	30 e0       	ldi	r19, 0x00	; 0
     e64:	48 ec       	ldi	r20, 0xC8	; 200
     e66:	51 e4       	ldi	r21, 0x41	; 65
     e68:	c2 d0       	rcall	.+388    	; 0xfee <__divsf3>
     e6a:	08 95       	ret

00000e6c <_ZN11Temperature16Calc_Temp_OffsetEi>:
     e6c:	07 2e       	mov	r0, r23
     e6e:	00 0c       	add	r0, r0
     e70:	88 0b       	sbc	r24, r24
     e72:	99 0b       	sbc	r25, r25
     e74:	57 d1       	rcall	.+686    	; 0x1124 <__floatsisf>
     e76:	20 e0       	ldi	r18, 0x00	; 0
     e78:	30 e0       	ldi	r19, 0x00	; 0
     e7a:	40 e2       	ldi	r20, 0x20	; 32
     e7c:	51 e4       	ldi	r21, 0x41	; 65
     e7e:	b7 d0       	rcall	.+366    	; 0xfee <__divsf3>
     e80:	20 e0       	ldi	r18, 0x00	; 0
     e82:	30 e0       	ldi	r19, 0x00	; 0
     e84:	48 e4       	ldi	r20, 0x48	; 72
     e86:	52 e4       	ldi	r21, 0x42	; 66
     e88:	49 d0       	rcall	.+146    	; 0xf1c <__subsf3>
     e8a:	08 95       	ret

00000e8c <_ZN11Temperature5ResetEv>:
     e8c:	9c 01       	movw	r18, r24
     e8e:	2c 5e       	subi	r18, 0xEC	; 236
     e90:	3f 4f       	sbci	r19, 0xFF	; 255
     e92:	fc 01       	movw	r30, r24
     e94:	11 92       	st	Z+, r1
     e96:	11 92       	st	Z+, r1
     e98:	11 92       	st	Z+, r1
     e9a:	11 92       	st	Z+, r1
     e9c:	cf 01       	movw	r24, r30
     e9e:	e2 17       	cp	r30, r18
     ea0:	f3 07       	cpc	r31, r19
     ea2:	b9 f7       	brne	.-18     	; 0xe92 <_ZN11Temperature5ResetEv+0x6>
     ea4:	08 95       	ret

00000ea6 <_ZN4Util7BracketEiii>:
     ea6:	68 17       	cp	r22, r24
     ea8:	79 07       	cpc	r23, r25
     eaa:	2c f0       	brlt	.+10     	; 0xeb6 <_ZN4Util7BracketEiii+0x10>
     eac:	84 17       	cp	r24, r20
     eae:	95 07       	cpc	r25, r21
     eb0:	1c f4       	brge	.+6      	; 0xeb8 <_ZN4Util7BracketEiii+0x12>
     eb2:	ca 01       	movw	r24, r20
     eb4:	08 95       	ret
     eb6:	cb 01       	movw	r24, r22
     eb8:	08 95       	ret

00000eba <_ZN4Util7BracketEddd>:
     eba:	8f 92       	push	r8
     ebc:	9f 92       	push	r9
     ebe:	af 92       	push	r10
     ec0:	bf 92       	push	r11
     ec2:	cf 92       	push	r12
     ec4:	df 92       	push	r13
     ec6:	ef 92       	push	r14
     ec8:	ff 92       	push	r15
     eca:	0f 93       	push	r16
     ecc:	1f 93       	push	r17
     ece:	cf 93       	push	r28
     ed0:	df 93       	push	r29
     ed2:	6b 01       	movw	r12, r22
     ed4:	d8 2f       	mov	r29, r24
     ed6:	c9 2f       	mov	r28, r25
     ed8:	49 01       	movw	r8, r18
     eda:	5a 01       	movw	r10, r20
     edc:	d3 d1       	rcall	.+934    	; 0x1284 <__gesf2>
     ede:	18 16       	cp	r1, r24
     ee0:	64 f0       	brlt	.+24     	; 0xefa <_ZN4Util7BracketEddd+0x40>
     ee2:	97 01       	movw	r18, r14
     ee4:	a8 01       	movw	r20, r16
     ee6:	b6 01       	movw	r22, r12
     ee8:	8d 2f       	mov	r24, r29
     eea:	9c 2f       	mov	r25, r28
     eec:	7c d0       	rcall	.+248    	; 0xfe6 <__cmpsf2>
     eee:	87 fd       	sbrc	r24, 7
     ef0:	06 c0       	rjmp	.+12     	; 0xefe <_ZN4Util7BracketEddd+0x44>
     ef2:	76 01       	movw	r14, r12
     ef4:	0d 2f       	mov	r16, r29
     ef6:	1c 2f       	mov	r17, r28
     ef8:	02 c0       	rjmp	.+4      	; 0xefe <_ZN4Util7BracketEddd+0x44>
     efa:	74 01       	movw	r14, r8
     efc:	85 01       	movw	r16, r10
     efe:	b7 01       	movw	r22, r14
     f00:	c8 01       	movw	r24, r16
     f02:	df 91       	pop	r29
     f04:	cf 91       	pop	r28
     f06:	1f 91       	pop	r17
     f08:	0f 91       	pop	r16
     f0a:	ff 90       	pop	r15
     f0c:	ef 90       	pop	r14
     f0e:	df 90       	pop	r13
     f10:	cf 90       	pop	r12
     f12:	bf 90       	pop	r11
     f14:	af 90       	pop	r10
     f16:	9f 90       	pop	r9
     f18:	8f 90       	pop	r8
     f1a:	08 95       	ret

00000f1c <__subsf3>:
     f1c:	50 58       	subi	r21, 0x80	; 128

00000f1e <__addsf3>:
     f1e:	bb 27       	eor	r27, r27
     f20:	aa 27       	eor	r26, r26
     f22:	0e d0       	rcall	.+28     	; 0xf40 <__addsf3x>
     f24:	75 c1       	rjmp	.+746    	; 0x1210 <__fp_round>
     f26:	66 d1       	rcall	.+716    	; 0x11f4 <__fp_pscA>
     f28:	30 f0       	brcs	.+12     	; 0xf36 <__addsf3+0x18>
     f2a:	6b d1       	rcall	.+726    	; 0x1202 <__fp_pscB>
     f2c:	20 f0       	brcs	.+8      	; 0xf36 <__addsf3+0x18>
     f2e:	31 f4       	brne	.+12     	; 0xf3c <__addsf3+0x1e>
     f30:	9f 3f       	cpi	r25, 0xFF	; 255
     f32:	11 f4       	brne	.+4      	; 0xf38 <__addsf3+0x1a>
     f34:	1e f4       	brtc	.+6      	; 0xf3c <__addsf3+0x1e>
     f36:	5b c1       	rjmp	.+694    	; 0x11ee <__fp_nan>
     f38:	0e f4       	brtc	.+2      	; 0xf3c <__addsf3+0x1e>
     f3a:	e0 95       	com	r30
     f3c:	e7 fb       	bst	r30, 7
     f3e:	51 c1       	rjmp	.+674    	; 0x11e2 <__fp_inf>

00000f40 <__addsf3x>:
     f40:	e9 2f       	mov	r30, r25
     f42:	77 d1       	rcall	.+750    	; 0x1232 <__fp_split3>
     f44:	80 f3       	brcs	.-32     	; 0xf26 <__addsf3+0x8>
     f46:	ba 17       	cp	r27, r26
     f48:	62 07       	cpc	r22, r18
     f4a:	73 07       	cpc	r23, r19
     f4c:	84 07       	cpc	r24, r20
     f4e:	95 07       	cpc	r25, r21
     f50:	18 f0       	brcs	.+6      	; 0xf58 <__addsf3x+0x18>
     f52:	71 f4       	brne	.+28     	; 0xf70 <__addsf3x+0x30>
     f54:	9e f5       	brtc	.+102    	; 0xfbc <__addsf3x+0x7c>
     f56:	8f c1       	rjmp	.+798    	; 0x1276 <__fp_zero>
     f58:	0e f4       	brtc	.+2      	; 0xf5c <__addsf3x+0x1c>
     f5a:	e0 95       	com	r30
     f5c:	0b 2e       	mov	r0, r27
     f5e:	ba 2f       	mov	r27, r26
     f60:	a0 2d       	mov	r26, r0
     f62:	0b 01       	movw	r0, r22
     f64:	b9 01       	movw	r22, r18
     f66:	90 01       	movw	r18, r0
     f68:	0c 01       	movw	r0, r24
     f6a:	ca 01       	movw	r24, r20
     f6c:	a0 01       	movw	r20, r0
     f6e:	11 24       	eor	r1, r1
     f70:	ff 27       	eor	r31, r31
     f72:	59 1b       	sub	r21, r25
     f74:	99 f0       	breq	.+38     	; 0xf9c <__addsf3x+0x5c>
     f76:	59 3f       	cpi	r21, 0xF9	; 249
     f78:	50 f4       	brcc	.+20     	; 0xf8e <__addsf3x+0x4e>
     f7a:	50 3e       	cpi	r21, 0xE0	; 224
     f7c:	68 f1       	brcs	.+90     	; 0xfd8 <__addsf3x+0x98>
     f7e:	1a 16       	cp	r1, r26
     f80:	f0 40       	sbci	r31, 0x00	; 0
     f82:	a2 2f       	mov	r26, r18
     f84:	23 2f       	mov	r18, r19
     f86:	34 2f       	mov	r19, r20
     f88:	44 27       	eor	r20, r20
     f8a:	58 5f       	subi	r21, 0xF8	; 248
     f8c:	f3 cf       	rjmp	.-26     	; 0xf74 <__addsf3x+0x34>
     f8e:	46 95       	lsr	r20
     f90:	37 95       	ror	r19
     f92:	27 95       	ror	r18
     f94:	a7 95       	ror	r26
     f96:	f0 40       	sbci	r31, 0x00	; 0
     f98:	53 95       	inc	r21
     f9a:	c9 f7       	brne	.-14     	; 0xf8e <__addsf3x+0x4e>
     f9c:	7e f4       	brtc	.+30     	; 0xfbc <__addsf3x+0x7c>
     f9e:	1f 16       	cp	r1, r31
     fa0:	ba 0b       	sbc	r27, r26
     fa2:	62 0b       	sbc	r22, r18
     fa4:	73 0b       	sbc	r23, r19
     fa6:	84 0b       	sbc	r24, r20
     fa8:	ba f0       	brmi	.+46     	; 0xfd8 <__addsf3x+0x98>
     faa:	91 50       	subi	r25, 0x01	; 1
     fac:	a1 f0       	breq	.+40     	; 0xfd6 <__addsf3x+0x96>
     fae:	ff 0f       	add	r31, r31
     fb0:	bb 1f       	adc	r27, r27
     fb2:	66 1f       	adc	r22, r22
     fb4:	77 1f       	adc	r23, r23
     fb6:	88 1f       	adc	r24, r24
     fb8:	c2 f7       	brpl	.-16     	; 0xfaa <__addsf3x+0x6a>
     fba:	0e c0       	rjmp	.+28     	; 0xfd8 <__addsf3x+0x98>
     fbc:	ba 0f       	add	r27, r26
     fbe:	62 1f       	adc	r22, r18
     fc0:	73 1f       	adc	r23, r19
     fc2:	84 1f       	adc	r24, r20
     fc4:	48 f4       	brcc	.+18     	; 0xfd8 <__addsf3x+0x98>
     fc6:	87 95       	ror	r24
     fc8:	77 95       	ror	r23
     fca:	67 95       	ror	r22
     fcc:	b7 95       	ror	r27
     fce:	f7 95       	ror	r31
     fd0:	9e 3f       	cpi	r25, 0xFE	; 254
     fd2:	08 f0       	brcs	.+2      	; 0xfd6 <__addsf3x+0x96>
     fd4:	b3 cf       	rjmp	.-154    	; 0xf3c <__addsf3+0x1e>
     fd6:	93 95       	inc	r25
     fd8:	88 0f       	add	r24, r24
     fda:	08 f0       	brcs	.+2      	; 0xfde <__addsf3x+0x9e>
     fdc:	99 27       	eor	r25, r25
     fde:	ee 0f       	add	r30, r30
     fe0:	97 95       	ror	r25
     fe2:	87 95       	ror	r24
     fe4:	08 95       	ret

00000fe6 <__cmpsf2>:
     fe6:	d9 d0       	rcall	.+434    	; 0x119a <__fp_cmp>
     fe8:	08 f4       	brcc	.+2      	; 0xfec <__cmpsf2+0x6>
     fea:	81 e0       	ldi	r24, 0x01	; 1
     fec:	08 95       	ret

00000fee <__divsf3>:
     fee:	0c d0       	rcall	.+24     	; 0x1008 <__divsf3x>
     ff0:	0f c1       	rjmp	.+542    	; 0x1210 <__fp_round>
     ff2:	07 d1       	rcall	.+526    	; 0x1202 <__fp_pscB>
     ff4:	40 f0       	brcs	.+16     	; 0x1006 <__divsf3+0x18>
     ff6:	fe d0       	rcall	.+508    	; 0x11f4 <__fp_pscA>
     ff8:	30 f0       	brcs	.+12     	; 0x1006 <__divsf3+0x18>
     ffa:	21 f4       	brne	.+8      	; 0x1004 <__divsf3+0x16>
     ffc:	5f 3f       	cpi	r21, 0xFF	; 255
     ffe:	19 f0       	breq	.+6      	; 0x1006 <__divsf3+0x18>
    1000:	f0 c0       	rjmp	.+480    	; 0x11e2 <__fp_inf>
    1002:	51 11       	cpse	r21, r1
    1004:	39 c1       	rjmp	.+626    	; 0x1278 <__fp_szero>
    1006:	f3 c0       	rjmp	.+486    	; 0x11ee <__fp_nan>

00001008 <__divsf3x>:
    1008:	14 d1       	rcall	.+552    	; 0x1232 <__fp_split3>
    100a:	98 f3       	brcs	.-26     	; 0xff2 <__divsf3+0x4>

0000100c <__divsf3_pse>:
    100c:	99 23       	and	r25, r25
    100e:	c9 f3       	breq	.-14     	; 0x1002 <__divsf3+0x14>
    1010:	55 23       	and	r21, r21
    1012:	b1 f3       	breq	.-20     	; 0x1000 <__divsf3+0x12>
    1014:	95 1b       	sub	r25, r21
    1016:	55 0b       	sbc	r21, r21
    1018:	bb 27       	eor	r27, r27
    101a:	aa 27       	eor	r26, r26
    101c:	62 17       	cp	r22, r18
    101e:	73 07       	cpc	r23, r19
    1020:	84 07       	cpc	r24, r20
    1022:	38 f0       	brcs	.+14     	; 0x1032 <__divsf3_pse+0x26>
    1024:	9f 5f       	subi	r25, 0xFF	; 255
    1026:	5f 4f       	sbci	r21, 0xFF	; 255
    1028:	22 0f       	add	r18, r18
    102a:	33 1f       	adc	r19, r19
    102c:	44 1f       	adc	r20, r20
    102e:	aa 1f       	adc	r26, r26
    1030:	a9 f3       	breq	.-22     	; 0x101c <__divsf3_pse+0x10>
    1032:	33 d0       	rcall	.+102    	; 0x109a <__divsf3_pse+0x8e>
    1034:	0e 2e       	mov	r0, r30
    1036:	3a f0       	brmi	.+14     	; 0x1046 <__divsf3_pse+0x3a>
    1038:	e0 e8       	ldi	r30, 0x80	; 128
    103a:	30 d0       	rcall	.+96     	; 0x109c <__divsf3_pse+0x90>
    103c:	91 50       	subi	r25, 0x01	; 1
    103e:	50 40       	sbci	r21, 0x00	; 0
    1040:	e6 95       	lsr	r30
    1042:	00 1c       	adc	r0, r0
    1044:	ca f7       	brpl	.-14     	; 0x1038 <__divsf3_pse+0x2c>
    1046:	29 d0       	rcall	.+82     	; 0x109a <__divsf3_pse+0x8e>
    1048:	fe 2f       	mov	r31, r30
    104a:	27 d0       	rcall	.+78     	; 0x109a <__divsf3_pse+0x8e>
    104c:	66 0f       	add	r22, r22
    104e:	77 1f       	adc	r23, r23
    1050:	88 1f       	adc	r24, r24
    1052:	bb 1f       	adc	r27, r27
    1054:	26 17       	cp	r18, r22
    1056:	37 07       	cpc	r19, r23
    1058:	48 07       	cpc	r20, r24
    105a:	ab 07       	cpc	r26, r27
    105c:	b0 e8       	ldi	r27, 0x80	; 128
    105e:	09 f0       	breq	.+2      	; 0x1062 <__divsf3_pse+0x56>
    1060:	bb 0b       	sbc	r27, r27
    1062:	80 2d       	mov	r24, r0
    1064:	bf 01       	movw	r22, r30
    1066:	ff 27       	eor	r31, r31
    1068:	93 58       	subi	r25, 0x83	; 131
    106a:	5f 4f       	sbci	r21, 0xFF	; 255
    106c:	2a f0       	brmi	.+10     	; 0x1078 <__divsf3_pse+0x6c>
    106e:	9e 3f       	cpi	r25, 0xFE	; 254
    1070:	51 05       	cpc	r21, r1
    1072:	68 f0       	brcs	.+26     	; 0x108e <__divsf3_pse+0x82>
    1074:	b6 c0       	rjmp	.+364    	; 0x11e2 <__fp_inf>
    1076:	00 c1       	rjmp	.+512    	; 0x1278 <__fp_szero>
    1078:	5f 3f       	cpi	r21, 0xFF	; 255
    107a:	ec f3       	brlt	.-6      	; 0x1076 <__divsf3_pse+0x6a>
    107c:	98 3e       	cpi	r25, 0xE8	; 232
    107e:	dc f3       	brlt	.-10     	; 0x1076 <__divsf3_pse+0x6a>
    1080:	86 95       	lsr	r24
    1082:	77 95       	ror	r23
    1084:	67 95       	ror	r22
    1086:	b7 95       	ror	r27
    1088:	f7 95       	ror	r31
    108a:	9f 5f       	subi	r25, 0xFF	; 255
    108c:	c9 f7       	brne	.-14     	; 0x1080 <__divsf3_pse+0x74>
    108e:	88 0f       	add	r24, r24
    1090:	91 1d       	adc	r25, r1
    1092:	96 95       	lsr	r25
    1094:	87 95       	ror	r24
    1096:	97 f9       	bld	r25, 7
    1098:	08 95       	ret
    109a:	e1 e0       	ldi	r30, 0x01	; 1
    109c:	66 0f       	add	r22, r22
    109e:	77 1f       	adc	r23, r23
    10a0:	88 1f       	adc	r24, r24
    10a2:	bb 1f       	adc	r27, r27
    10a4:	62 17       	cp	r22, r18
    10a6:	73 07       	cpc	r23, r19
    10a8:	84 07       	cpc	r24, r20
    10aa:	ba 07       	cpc	r27, r26
    10ac:	20 f0       	brcs	.+8      	; 0x10b6 <__divsf3_pse+0xaa>
    10ae:	62 1b       	sub	r22, r18
    10b0:	73 0b       	sbc	r23, r19
    10b2:	84 0b       	sbc	r24, r20
    10b4:	ba 0b       	sbc	r27, r26
    10b6:	ee 1f       	adc	r30, r30
    10b8:	88 f7       	brcc	.-30     	; 0x109c <__divsf3_pse+0x90>
    10ba:	e0 95       	com	r30
    10bc:	08 95       	ret

000010be <__fixsfsi>:
    10be:	04 d0       	rcall	.+8      	; 0x10c8 <__fixunssfsi>
    10c0:	68 94       	set
    10c2:	b1 11       	cpse	r27, r1
    10c4:	d9 c0       	rjmp	.+434    	; 0x1278 <__fp_szero>
    10c6:	08 95       	ret

000010c8 <__fixunssfsi>:
    10c8:	bc d0       	rcall	.+376    	; 0x1242 <__fp_splitA>
    10ca:	88 f0       	brcs	.+34     	; 0x10ee <__fixunssfsi+0x26>
    10cc:	9f 57       	subi	r25, 0x7F	; 127
    10ce:	90 f0       	brcs	.+36     	; 0x10f4 <__fixunssfsi+0x2c>
    10d0:	b9 2f       	mov	r27, r25
    10d2:	99 27       	eor	r25, r25
    10d4:	b7 51       	subi	r27, 0x17	; 23
    10d6:	a0 f0       	brcs	.+40     	; 0x1100 <__fixunssfsi+0x38>
    10d8:	d1 f0       	breq	.+52     	; 0x110e <__fixunssfsi+0x46>
    10da:	66 0f       	add	r22, r22
    10dc:	77 1f       	adc	r23, r23
    10de:	88 1f       	adc	r24, r24
    10e0:	99 1f       	adc	r25, r25
    10e2:	1a f0       	brmi	.+6      	; 0x10ea <__fixunssfsi+0x22>
    10e4:	ba 95       	dec	r27
    10e6:	c9 f7       	brne	.-14     	; 0x10da <__fixunssfsi+0x12>
    10e8:	12 c0       	rjmp	.+36     	; 0x110e <__fixunssfsi+0x46>
    10ea:	b1 30       	cpi	r27, 0x01	; 1
    10ec:	81 f0       	breq	.+32     	; 0x110e <__fixunssfsi+0x46>
    10ee:	c3 d0       	rcall	.+390    	; 0x1276 <__fp_zero>
    10f0:	b1 e0       	ldi	r27, 0x01	; 1
    10f2:	08 95       	ret
    10f4:	c0 c0       	rjmp	.+384    	; 0x1276 <__fp_zero>
    10f6:	67 2f       	mov	r22, r23
    10f8:	78 2f       	mov	r23, r24
    10fa:	88 27       	eor	r24, r24
    10fc:	b8 5f       	subi	r27, 0xF8	; 248
    10fe:	39 f0       	breq	.+14     	; 0x110e <__fixunssfsi+0x46>
    1100:	b9 3f       	cpi	r27, 0xF9	; 249
    1102:	cc f3       	brlt	.-14     	; 0x10f6 <__fixunssfsi+0x2e>
    1104:	86 95       	lsr	r24
    1106:	77 95       	ror	r23
    1108:	67 95       	ror	r22
    110a:	b3 95       	inc	r27
    110c:	d9 f7       	brne	.-10     	; 0x1104 <__fixunssfsi+0x3c>
    110e:	3e f4       	brtc	.+14     	; 0x111e <__fixunssfsi+0x56>
    1110:	90 95       	com	r25
    1112:	80 95       	com	r24
    1114:	70 95       	com	r23
    1116:	61 95       	neg	r22
    1118:	7f 4f       	sbci	r23, 0xFF	; 255
    111a:	8f 4f       	sbci	r24, 0xFF	; 255
    111c:	9f 4f       	sbci	r25, 0xFF	; 255
    111e:	08 95       	ret

00001120 <__floatunsisf>:
    1120:	e8 94       	clt
    1122:	09 c0       	rjmp	.+18     	; 0x1136 <__floatsisf+0x12>

00001124 <__floatsisf>:
    1124:	97 fb       	bst	r25, 7
    1126:	3e f4       	brtc	.+14     	; 0x1136 <__floatsisf+0x12>
    1128:	90 95       	com	r25
    112a:	80 95       	com	r24
    112c:	70 95       	com	r23
    112e:	61 95       	neg	r22
    1130:	7f 4f       	sbci	r23, 0xFF	; 255
    1132:	8f 4f       	sbci	r24, 0xFF	; 255
    1134:	9f 4f       	sbci	r25, 0xFF	; 255
    1136:	99 23       	and	r25, r25
    1138:	a9 f0       	breq	.+42     	; 0x1164 <__floatsisf+0x40>
    113a:	f9 2f       	mov	r31, r25
    113c:	96 e9       	ldi	r25, 0x96	; 150
    113e:	bb 27       	eor	r27, r27
    1140:	93 95       	inc	r25
    1142:	f6 95       	lsr	r31
    1144:	87 95       	ror	r24
    1146:	77 95       	ror	r23
    1148:	67 95       	ror	r22
    114a:	b7 95       	ror	r27
    114c:	f1 11       	cpse	r31, r1
    114e:	f8 cf       	rjmp	.-16     	; 0x1140 <__floatsisf+0x1c>
    1150:	fa f4       	brpl	.+62     	; 0x1190 <__floatsisf+0x6c>
    1152:	bb 0f       	add	r27, r27
    1154:	11 f4       	brne	.+4      	; 0x115a <__floatsisf+0x36>
    1156:	60 ff       	sbrs	r22, 0
    1158:	1b c0       	rjmp	.+54     	; 0x1190 <__floatsisf+0x6c>
    115a:	6f 5f       	subi	r22, 0xFF	; 255
    115c:	7f 4f       	sbci	r23, 0xFF	; 255
    115e:	8f 4f       	sbci	r24, 0xFF	; 255
    1160:	9f 4f       	sbci	r25, 0xFF	; 255
    1162:	16 c0       	rjmp	.+44     	; 0x1190 <__floatsisf+0x6c>
    1164:	88 23       	and	r24, r24
    1166:	11 f0       	breq	.+4      	; 0x116c <__floatsisf+0x48>
    1168:	96 e9       	ldi	r25, 0x96	; 150
    116a:	11 c0       	rjmp	.+34     	; 0x118e <__floatsisf+0x6a>
    116c:	77 23       	and	r23, r23
    116e:	21 f0       	breq	.+8      	; 0x1178 <__floatsisf+0x54>
    1170:	9e e8       	ldi	r25, 0x8E	; 142
    1172:	87 2f       	mov	r24, r23
    1174:	76 2f       	mov	r23, r22
    1176:	05 c0       	rjmp	.+10     	; 0x1182 <__floatsisf+0x5e>
    1178:	66 23       	and	r22, r22
    117a:	71 f0       	breq	.+28     	; 0x1198 <__floatsisf+0x74>
    117c:	96 e8       	ldi	r25, 0x86	; 134
    117e:	86 2f       	mov	r24, r22
    1180:	70 e0       	ldi	r23, 0x00	; 0
    1182:	60 e0       	ldi	r22, 0x00	; 0
    1184:	2a f0       	brmi	.+10     	; 0x1190 <__floatsisf+0x6c>
    1186:	9a 95       	dec	r25
    1188:	66 0f       	add	r22, r22
    118a:	77 1f       	adc	r23, r23
    118c:	88 1f       	adc	r24, r24
    118e:	da f7       	brpl	.-10     	; 0x1186 <__floatsisf+0x62>
    1190:	88 0f       	add	r24, r24
    1192:	96 95       	lsr	r25
    1194:	87 95       	ror	r24
    1196:	97 f9       	bld	r25, 7
    1198:	08 95       	ret

0000119a <__fp_cmp>:
    119a:	99 0f       	add	r25, r25
    119c:	00 08       	sbc	r0, r0
    119e:	55 0f       	add	r21, r21
    11a0:	aa 0b       	sbc	r26, r26
    11a2:	e0 e8       	ldi	r30, 0x80	; 128
    11a4:	fe ef       	ldi	r31, 0xFE	; 254
    11a6:	16 16       	cp	r1, r22
    11a8:	17 06       	cpc	r1, r23
    11aa:	e8 07       	cpc	r30, r24
    11ac:	f9 07       	cpc	r31, r25
    11ae:	c0 f0       	brcs	.+48     	; 0x11e0 <__fp_cmp+0x46>
    11b0:	12 16       	cp	r1, r18
    11b2:	13 06       	cpc	r1, r19
    11b4:	e4 07       	cpc	r30, r20
    11b6:	f5 07       	cpc	r31, r21
    11b8:	98 f0       	brcs	.+38     	; 0x11e0 <__fp_cmp+0x46>
    11ba:	62 1b       	sub	r22, r18
    11bc:	73 0b       	sbc	r23, r19
    11be:	84 0b       	sbc	r24, r20
    11c0:	95 0b       	sbc	r25, r21
    11c2:	39 f4       	brne	.+14     	; 0x11d2 <__fp_cmp+0x38>
    11c4:	0a 26       	eor	r0, r26
    11c6:	61 f0       	breq	.+24     	; 0x11e0 <__fp_cmp+0x46>
    11c8:	23 2b       	or	r18, r19
    11ca:	24 2b       	or	r18, r20
    11cc:	25 2b       	or	r18, r21
    11ce:	21 f4       	brne	.+8      	; 0x11d8 <__fp_cmp+0x3e>
    11d0:	08 95       	ret
    11d2:	0a 26       	eor	r0, r26
    11d4:	09 f4       	brne	.+2      	; 0x11d8 <__fp_cmp+0x3e>
    11d6:	a1 40       	sbci	r26, 0x01	; 1
    11d8:	a6 95       	lsr	r26
    11da:	8f ef       	ldi	r24, 0xFF	; 255
    11dc:	81 1d       	adc	r24, r1
    11de:	81 1d       	adc	r24, r1
    11e0:	08 95       	ret

000011e2 <__fp_inf>:
    11e2:	97 f9       	bld	r25, 7
    11e4:	9f 67       	ori	r25, 0x7F	; 127
    11e6:	80 e8       	ldi	r24, 0x80	; 128
    11e8:	70 e0       	ldi	r23, 0x00	; 0
    11ea:	60 e0       	ldi	r22, 0x00	; 0
    11ec:	08 95       	ret

000011ee <__fp_nan>:
    11ee:	9f ef       	ldi	r25, 0xFF	; 255
    11f0:	80 ec       	ldi	r24, 0xC0	; 192
    11f2:	08 95       	ret

000011f4 <__fp_pscA>:
    11f4:	00 24       	eor	r0, r0
    11f6:	0a 94       	dec	r0
    11f8:	16 16       	cp	r1, r22
    11fa:	17 06       	cpc	r1, r23
    11fc:	18 06       	cpc	r1, r24
    11fe:	09 06       	cpc	r0, r25
    1200:	08 95       	ret

00001202 <__fp_pscB>:
    1202:	00 24       	eor	r0, r0
    1204:	0a 94       	dec	r0
    1206:	12 16       	cp	r1, r18
    1208:	13 06       	cpc	r1, r19
    120a:	14 06       	cpc	r1, r20
    120c:	05 06       	cpc	r0, r21
    120e:	08 95       	ret

00001210 <__fp_round>:
    1210:	09 2e       	mov	r0, r25
    1212:	03 94       	inc	r0
    1214:	00 0c       	add	r0, r0
    1216:	11 f4       	brne	.+4      	; 0x121c <__fp_round+0xc>
    1218:	88 23       	and	r24, r24
    121a:	52 f0       	brmi	.+20     	; 0x1230 <__fp_round+0x20>
    121c:	bb 0f       	add	r27, r27
    121e:	40 f4       	brcc	.+16     	; 0x1230 <__fp_round+0x20>
    1220:	bf 2b       	or	r27, r31
    1222:	11 f4       	brne	.+4      	; 0x1228 <__fp_round+0x18>
    1224:	60 ff       	sbrs	r22, 0
    1226:	04 c0       	rjmp	.+8      	; 0x1230 <__fp_round+0x20>
    1228:	6f 5f       	subi	r22, 0xFF	; 255
    122a:	7f 4f       	sbci	r23, 0xFF	; 255
    122c:	8f 4f       	sbci	r24, 0xFF	; 255
    122e:	9f 4f       	sbci	r25, 0xFF	; 255
    1230:	08 95       	ret

00001232 <__fp_split3>:
    1232:	57 fd       	sbrc	r21, 7
    1234:	90 58       	subi	r25, 0x80	; 128
    1236:	44 0f       	add	r20, r20
    1238:	55 1f       	adc	r21, r21
    123a:	59 f0       	breq	.+22     	; 0x1252 <__fp_splitA+0x10>
    123c:	5f 3f       	cpi	r21, 0xFF	; 255
    123e:	71 f0       	breq	.+28     	; 0x125c <__fp_splitA+0x1a>
    1240:	47 95       	ror	r20

00001242 <__fp_splitA>:
    1242:	88 0f       	add	r24, r24
    1244:	97 fb       	bst	r25, 7
    1246:	99 1f       	adc	r25, r25
    1248:	61 f0       	breq	.+24     	; 0x1262 <__fp_splitA+0x20>
    124a:	9f 3f       	cpi	r25, 0xFF	; 255
    124c:	79 f0       	breq	.+30     	; 0x126c <__fp_splitA+0x2a>
    124e:	87 95       	ror	r24
    1250:	08 95       	ret
    1252:	12 16       	cp	r1, r18
    1254:	13 06       	cpc	r1, r19
    1256:	14 06       	cpc	r1, r20
    1258:	55 1f       	adc	r21, r21
    125a:	f2 cf       	rjmp	.-28     	; 0x1240 <__fp_split3+0xe>
    125c:	46 95       	lsr	r20
    125e:	f1 df       	rcall	.-30     	; 0x1242 <__fp_splitA>
    1260:	08 c0       	rjmp	.+16     	; 0x1272 <__fp_splitA+0x30>
    1262:	16 16       	cp	r1, r22
    1264:	17 06       	cpc	r1, r23
    1266:	18 06       	cpc	r1, r24
    1268:	99 1f       	adc	r25, r25
    126a:	f1 cf       	rjmp	.-30     	; 0x124e <__fp_splitA+0xc>
    126c:	86 95       	lsr	r24
    126e:	71 05       	cpc	r23, r1
    1270:	61 05       	cpc	r22, r1
    1272:	08 94       	sec
    1274:	08 95       	ret

00001276 <__fp_zero>:
    1276:	e8 94       	clt

00001278 <__fp_szero>:
    1278:	bb 27       	eor	r27, r27
    127a:	66 27       	eor	r22, r22
    127c:	77 27       	eor	r23, r23
    127e:	cb 01       	movw	r24, r22
    1280:	97 f9       	bld	r25, 7
    1282:	08 95       	ret

00001284 <__gesf2>:
    1284:	8a df       	rcall	.-236    	; 0x119a <__fp_cmp>
    1286:	08 f4       	brcc	.+2      	; 0x128a <__gesf2+0x6>
    1288:	8f ef       	ldi	r24, 0xFF	; 255
    128a:	08 95       	ret

0000128c <__mulsf3>:
    128c:	0a d0       	rcall	.+20     	; 0x12a2 <__mulsf3x>
    128e:	c0 cf       	rjmp	.-128    	; 0x1210 <__fp_round>
    1290:	b1 df       	rcall	.-158    	; 0x11f4 <__fp_pscA>
    1292:	28 f0       	brcs	.+10     	; 0x129e <__mulsf3+0x12>
    1294:	b6 df       	rcall	.-148    	; 0x1202 <__fp_pscB>
    1296:	18 f0       	brcs	.+6      	; 0x129e <__mulsf3+0x12>
    1298:	95 23       	and	r25, r21
    129a:	09 f0       	breq	.+2      	; 0x129e <__mulsf3+0x12>
    129c:	a2 cf       	rjmp	.-188    	; 0x11e2 <__fp_inf>
    129e:	a7 cf       	rjmp	.-178    	; 0x11ee <__fp_nan>
    12a0:	eb cf       	rjmp	.-42     	; 0x1278 <__fp_szero>

000012a2 <__mulsf3x>:
    12a2:	c7 df       	rcall	.-114    	; 0x1232 <__fp_split3>
    12a4:	a8 f3       	brcs	.-22     	; 0x1290 <__mulsf3+0x4>

000012a6 <__mulsf3_pse>:
    12a6:	99 23       	and	r25, r25
    12a8:	d9 f3       	breq	.-10     	; 0x12a0 <__mulsf3+0x14>
    12aa:	55 23       	and	r21, r21
    12ac:	c9 f3       	breq	.-14     	; 0x12a0 <__mulsf3+0x14>
    12ae:	95 0f       	add	r25, r21
    12b0:	50 e0       	ldi	r21, 0x00	; 0
    12b2:	55 1f       	adc	r21, r21
    12b4:	aa 27       	eor	r26, r26
    12b6:	ee 27       	eor	r30, r30
    12b8:	ff 27       	eor	r31, r31
    12ba:	bb 27       	eor	r27, r27
    12bc:	00 24       	eor	r0, r0
    12be:	08 94       	sec
    12c0:	67 95       	ror	r22
    12c2:	20 f4       	brcc	.+8      	; 0x12cc <__mulsf3_pse+0x26>
    12c4:	e2 0f       	add	r30, r18
    12c6:	f3 1f       	adc	r31, r19
    12c8:	b4 1f       	adc	r27, r20
    12ca:	0a 1e       	adc	r0, r26
    12cc:	22 0f       	add	r18, r18
    12ce:	33 1f       	adc	r19, r19
    12d0:	44 1f       	adc	r20, r20
    12d2:	aa 1f       	adc	r26, r26
    12d4:	66 95       	lsr	r22
    12d6:	a9 f7       	brne	.-22     	; 0x12c2 <__mulsf3_pse+0x1c>
    12d8:	77 95       	ror	r23
    12da:	30 f4       	brcc	.+12     	; 0x12e8 <__mulsf3_pse+0x42>
    12dc:	f3 0f       	add	r31, r19
    12de:	b4 1f       	adc	r27, r20
    12e0:	0a 1e       	adc	r0, r26
    12e2:	12 1e       	adc	r1, r18
    12e4:	08 f4       	brcc	.+2      	; 0x12e8 <__mulsf3_pse+0x42>
    12e6:	63 95       	inc	r22
    12e8:	33 0f       	add	r19, r19
    12ea:	44 1f       	adc	r20, r20
    12ec:	aa 1f       	adc	r26, r26
    12ee:	22 1f       	adc	r18, r18
    12f0:	76 95       	lsr	r23
    12f2:	99 f7       	brne	.-26     	; 0x12da <__mulsf3_pse+0x34>
    12f4:	87 95       	ror	r24
    12f6:	20 f4       	brcc	.+8      	; 0x1300 <__mulsf3_pse+0x5a>
    12f8:	b4 0f       	add	r27, r20
    12fa:	0a 1e       	adc	r0, r26
    12fc:	12 1e       	adc	r1, r18
    12fe:	63 1f       	adc	r22, r19
    1300:	44 0f       	add	r20, r20
    1302:	aa 1f       	adc	r26, r26
    1304:	22 1f       	adc	r18, r18
    1306:	33 1f       	adc	r19, r19
    1308:	86 95       	lsr	r24
    130a:	a9 f7       	brne	.-22     	; 0x12f6 <__mulsf3_pse+0x50>
    130c:	86 2f       	mov	r24, r22
    130e:	71 2d       	mov	r23, r1
    1310:	60 2d       	mov	r22, r0
    1312:	11 24       	eor	r1, r1
    1314:	9f 57       	subi	r25, 0x7F	; 127
    1316:	50 40       	sbci	r21, 0x00	; 0
    1318:	8a f0       	brmi	.+34     	; 0x133c <__mulsf3_pse+0x96>
    131a:	e1 f0       	breq	.+56     	; 0x1354 <__mulsf3_pse+0xae>
    131c:	88 23       	and	r24, r24
    131e:	4a f0       	brmi	.+18     	; 0x1332 <__mulsf3_pse+0x8c>
    1320:	ee 0f       	add	r30, r30
    1322:	ff 1f       	adc	r31, r31
    1324:	bb 1f       	adc	r27, r27
    1326:	66 1f       	adc	r22, r22
    1328:	77 1f       	adc	r23, r23
    132a:	88 1f       	adc	r24, r24
    132c:	91 50       	subi	r25, 0x01	; 1
    132e:	50 40       	sbci	r21, 0x00	; 0
    1330:	a9 f7       	brne	.-22     	; 0x131c <__mulsf3_pse+0x76>
    1332:	9e 3f       	cpi	r25, 0xFE	; 254
    1334:	51 05       	cpc	r21, r1
    1336:	70 f0       	brcs	.+28     	; 0x1354 <__mulsf3_pse+0xae>
    1338:	54 cf       	rjmp	.-344    	; 0x11e2 <__fp_inf>
    133a:	9e cf       	rjmp	.-196    	; 0x1278 <__fp_szero>
    133c:	5f 3f       	cpi	r21, 0xFF	; 255
    133e:	ec f3       	brlt	.-6      	; 0x133a <__mulsf3_pse+0x94>
    1340:	98 3e       	cpi	r25, 0xE8	; 232
    1342:	dc f3       	brlt	.-10     	; 0x133a <__mulsf3_pse+0x94>
    1344:	86 95       	lsr	r24
    1346:	77 95       	ror	r23
    1348:	67 95       	ror	r22
    134a:	b7 95       	ror	r27
    134c:	f7 95       	ror	r31
    134e:	e7 95       	ror	r30
    1350:	9f 5f       	subi	r25, 0xFF	; 255
    1352:	c1 f7       	brne	.-16     	; 0x1344 <__mulsf3_pse+0x9e>
    1354:	fe 2b       	or	r31, r30
    1356:	88 0f       	add	r24, r24
    1358:	91 1d       	adc	r25, r1
    135a:	96 95       	lsr	r25
    135c:	87 95       	ror	r24
    135e:	97 f9       	bld	r25, 7
    1360:	08 95       	ret

00001362 <__divmodhi4>:
    1362:	97 fb       	bst	r25, 7
    1364:	07 2e       	mov	r0, r23
    1366:	16 f4       	brtc	.+4      	; 0x136c <__divmodhi4+0xa>
    1368:	00 94       	com	r0
    136a:	06 d0       	rcall	.+12     	; 0x1378 <__divmodhi4_neg1>
    136c:	77 fd       	sbrc	r23, 7
    136e:	08 d0       	rcall	.+16     	; 0x1380 <__divmodhi4_neg2>
    1370:	0b d0       	rcall	.+22     	; 0x1388 <__udivmodhi4>
    1372:	07 fc       	sbrc	r0, 7
    1374:	05 d0       	rcall	.+10     	; 0x1380 <__divmodhi4_neg2>
    1376:	3e f4       	brtc	.+14     	; 0x1386 <__divmodhi4_exit>

00001378 <__divmodhi4_neg1>:
    1378:	90 95       	com	r25
    137a:	81 95       	neg	r24
    137c:	9f 4f       	sbci	r25, 0xFF	; 255
    137e:	08 95       	ret

00001380 <__divmodhi4_neg2>:
    1380:	70 95       	com	r23
    1382:	61 95       	neg	r22
    1384:	7f 4f       	sbci	r23, 0xFF	; 255

00001386 <__divmodhi4_exit>:
    1386:	08 95       	ret

00001388 <__udivmodhi4>:
    1388:	aa 1b       	sub	r26, r26
    138a:	bb 1b       	sub	r27, r27
    138c:	51 e1       	ldi	r21, 0x11	; 17
    138e:	07 c0       	rjmp	.+14     	; 0x139e <__udivmodhi4_ep>

00001390 <__udivmodhi4_loop>:
    1390:	aa 1f       	adc	r26, r26
    1392:	bb 1f       	adc	r27, r27
    1394:	a6 17       	cp	r26, r22
    1396:	b7 07       	cpc	r27, r23
    1398:	10 f0       	brcs	.+4      	; 0x139e <__udivmodhi4_ep>
    139a:	a6 1b       	sub	r26, r22
    139c:	b7 0b       	sbc	r27, r23

0000139e <__udivmodhi4_ep>:
    139e:	88 1f       	adc	r24, r24
    13a0:	99 1f       	adc	r25, r25
    13a2:	5a 95       	dec	r21
    13a4:	a9 f7       	brne	.-22     	; 0x1390 <__udivmodhi4_loop>
    13a6:	80 95       	com	r24
    13a8:	90 95       	com	r25
    13aa:	bc 01       	movw	r22, r24
    13ac:	cd 01       	movw	r24, r26
    13ae:	08 95       	ret

000013b0 <_exit>:
    13b0:	f8 94       	cli

000013b2 <__stop_program>:
    13b2:	ff cf       	rjmp	.-2      	; 0x13b2 <__stop_program>
